0187722247547852015010100537+40624-074669FM-15+0030KSMQ V0209999C000052200059N0160935N5-00675-01225102375ADDAA101000095GA1005+999999999GD10991+9999999GF100991999999999999999999MA1102345101975REMMET09212/31/14 19:53:03 METAR KSMQ 010053Z 00000KT 10SM CLR M07/M12 A3022 RMK AO2 SLP237 T10671122
0187722247547852015010101537+40624-074669FM-15+0030KSMQ V0209999C000052200059N0160935N5-00725-01225102325ADDAA101000095GA1005+999999999GD10991+9999999GF100991999999999999999999MA1102305101945REMMET09212/31/14 20:53:03 METAR KSMQ 010153Z 00000KT 10SM CLR M07/M12 A3021 RMK AO2 SLP232 T10721122
0207722247547852015010102537+40624-074669FM-15+0030KSMQ V0209999C000052200059N0160935N5-00835-01175102275ADDAA101000095GA1005+999999999GD10991+9999999GF100991999999999999999999MA1102245101875MD1690154+9999REMMET09812/31/14 21:53:03 METAR KSMQ 010253Z 00000KT 10SM CLR M08/M12 A3019 RMK AO2 SLP227 T10831117 56015
0187722247547852015010103537+40624-074669FM-15+0030KSMQ V0209999C000052200059N0160935N5-00945-01225102255ADDAA101000095GA1005+999999999GD10991+9999999GF100991999999999999999999MA1102205101845REMMET09212/31/14 22:53:03 METAR KSMQ 010353Z 00000KT 10SM CLR M09/M12 A3018 RMK AO2 SLP225 T10941122
0222722247547852015010104537+40624-074669FM-15+0030KSMQ V0209999C000052200059N0144845N5-00945-01285102225ADDAA101000095GA1005+999999999GD10991+9999999GF100991999999999999999999KA1240M+00061KA2240N-00941MA1102205101845REMMET10112/31/14 23:53:03 METAR KSMQ 010453Z 00000KT 9SM CLR M09/M13 A3018 RMK AO2 SLP222 T10941128 400061094
0886722247547852015010104596+40624-074669SOD  +0030KSMQ V020999999999999999999999999999+99999+99999999999ADDAA124000095KA1240M+00065KA2240N-00935MG1102224102244OE11240102831014195OE22240067131014215OE33240013999999995REMSOD73024 HR PRECIPITATION (IN):0.00  24 HR MAX TEMP (F):33 24 HR MAX TEMP TIME (LST):1437 24 HR MIN TEMP (F):15 24 HR MIN TEMP TIME (LST):2359 AVERAGE STATION PRESSURE:30.185 MINIMUM SEA LEVEL PRESSURE:30.19 TIME OF OCCURRENCE:2359 PEAK WIND SPEED (MPH):23  PEAK WIND DIR (DEG):310 PEAK WIND TIME (LST):1419  FASTEST 2MIN SPEED (MPH):15 FASTEST 2MIN DIR (DEG):310 FASTEST 2MIN TIME (LST):1421 AVERAGE WIND SPEED (MPH):3.1  24 HR AVG TEMP (F):24 HEATING DEGREE DAYS:41  COOLING DEGREE DAYS:0   LATEST DAY MAX TEMP (0700-1900 LST):33  LATEST NIGHT MIN TEMP(1900-0800 LST):15 HOURLY INCREMENTAL PRECIPITATION VALUES (IN):.00 0.00 0.00 0.00 0.00 0.00 0.00 0.00 0.00 0.00 0.00 0.00 0.00 0.00 0.00 0.00 0.00 0.00 0.00 0.00 0.00 0.00 0.00 0.00EQDR01     N7GJS072R02     N7GKS075
1239722247547852015010104596+40624-074669SOM  +0030KSMQ V020999999999999999999999999999+99999+99999999999ADDAB10112096AD10030590606999999995AE1135105035025AH1005001090612345AH2010001890612385AH3015002590612365AH4020002890612425AH5030003890612515AH6045005190613075AI1060006190613175AI2080007190613245AI3100007990614015AI4120008990907055AI5150010990907355AI6180013090908055KB1744N-00115KB2744M+07335KB3744A+03615KC1N9-00943199995KC2M9+01830199995KD1744H08145KD2744C00005KE1005005175005MH1101574101964MK1103890808595099862501205REMSOM791PCP MTOT:4.41 PCP GT 24HRS:1.20 DATE(S):6 DAYS W/PCP >=.01:13 DAYS W/PCP >=.10:10 DAYS W/ PCP >=.50:3 DAYS W/PCP >=1.00:2 MSDP AMTS W/DATE-TIME TAGS:MIN:5 0.04  06/1234 MIN:10 0.07  06/1238 MIN:15 0.10  06/1236 MIN:20 0.11  06/1242 MIN:30 0.15  06/1251 MIN:45 0.20  06/1307 MIN:60 0.24  06/1317 MIN:80 0.28  06/1324 MIN:100 0.31  06/1401 MIN:120 0.35  09/0705 MIN:150 0.43  09/0735 MIN:180 0.51  09/0805 AVG DLY MIN:31.8  AVG DLY MAX:45.2  AVG MLY TMP:38.5  MIN TMP:15 DATE(S):31 MAX TMP:65  DATE(S):01 DAYS MAX <=32:0 DAYS MAX >=90:0  DAYS MIN <=32:17 DAYS MIN  <=0:0  AVG STP:29.995 LWST SLP:29.49 DATE/TIME:250120 HGST SLP:30.68 DATE/TIME:080859 HDD MTH TOT:814 DEP NORM:-2553 SEASON(JUL 1-JUN 30):1910 DEP NORM:-25536 CDD MTH TOT:0 DEP NORM:-2553 SEASON(JAN 1-DEC 31):793 DEP NORM:-25536EQDR01  4.417ABP070
0265722247547852015010105537+40624-074669FM-15+0030KSMQ V0209999C000052200059N0112655N5-01065-01285102115ADDAA101000095GA1005+999999999GD10991+9999999GF100991999999999999999999KA1060M-00441KA2060N-01061MA1102075101705MD1890164+9999WA1900099REMMET12101/01/15 00:53:02 METAR KSMQ 010553Z 00000KT 7SM CLR M11/M13 A3014 RMK AO2 SLP211 I1000 I6000 T11061128 11044 21106 58016
0201722247547852015010106537+40624-074669FM-15+0030KSMQ V0209999C000052200059N0144845N5-01005-01225102125ADDAA101000095GA1005+999999999GD10991+9999999GF100991999999999999999999MA1102105101745WA1900099REMMET09701/01/15 01:53:02 METAR KSMQ 010653Z 00000KT 9SM CLR M10/M12 A3015 RMK AO2 SLP212 I1000 T11001122
0201722247547852015010107537+40624-074669FM-15+0030KSMQ V0209999C000052200059N0128755N5-01065-01335102095ADDAA101000095GA1005+999999999GD10991+9999999GF100991999999999999999999MA1102075101705WA1900099REMMET09701/01/15 02:53:02 METAR KSMQ 010753Z 00000KT 8SM CLR M11/M13 A3014 RMK AO2 SLP209 I1000 T11061133
0227722247547852015010108537+40624-074669FM-15+0030KSMQ V0209999C000052200059N0112655N5-01065-01285102075ADDAA101000095GA1005+999999999GD10991+9999999GF100991999999999999999999MA1102035101675MD1890044+9999WA1900099REMMET10901/01/15 03:53:02 METAR KSMQ 010853Z 00000KT 7SM CLR M11/M13 A3013 RMK AO2 SLP207 I1000 I3000 T11061128 58004
0201722247547852015010109537+40624-074669FM-15+0030KSMQ V0209999C000052200059N0112655N5-01065-01335102085ADDAA101000095GA1005+999999999GD10991+9999999GF100991999999999999999999MA1102035101675WA1900099REMMET09701/01/15 04:53:02 METAR KSMQ 010953Z 00000KT 7SM CLR M11/M13 A3013 RMK AO2 SLP208 I1000 T11061133
0201722247547852015010110537+40624-074669FM-15+0030KSMQ V0209999C000052200059N0144845N5-01065-01335102115ADDAA101000095GA1005+999999999GD10991+9999999GF100991999999999999999999MA1102075101705WA1900099REMMET09701/01/15 05:53:02 METAR KSMQ 011053Z 00000KT 9SM CLR M11/M13 A3014 RMK AO2 SLP211 I1000 T11061133
0265722247547852015010111537+40624-074669FM-15+0030KSMQ V0209999C000052200059N0128755N5-01115-01395102165ADDAA101000095GA1005+999999999GD10991+9999999GF100991999999999999999999KA1060M-00941KA2060N-01111MA1102135101775MD1390094+9999WA1900099REMMET12101/01/15 06:53:02 METAR KSMQ 011153Z 00000KT 8SM CLR M11/M14 A3016 RMK AO2 SLP216 I1000 I6000 T11111139 11094 21111 53009
0186722247547852015010112537+40624-074669FM-15+0030KSMQ V0209999C000052200059N0112655N5-01115-01335102155ADDAA101000095GA1005+999999999GD10991+9999999GF100991999999999999999999MA1102135101775REMMET09101/01/15 07:53:02 METAR KSMQ 011253Z 00000KT 7SM CLR M11/M13 A3016 RMK AO2 SLP215 T11111133
0186722247547852015010113537+40624-074669FM-15+0030KSMQ V0209999C000052200059N0128755N5-00725-01005102215ADDAA101000095GA1005+999999999GD10991+9999999GF100991999999999999999999MA1102175101805REMMET09101/01/15 08:53:02 METAR KSMQ 011353Z 00000KT 8SM CLR M07/M10 A3017 RMK AO2 SLP221 T10721100
0207722247547852015010114537+40624-074669FM-15+0030KSMQ V0209999V001552200059N0160935N5-00175-01005102185ADDAA101000095GA1005+999999999GD10991+9999999GF100991999999999999999999MA1102175101805MD1090024+9999REMMET09801/01/15 09:53:02 METAR KSMQ 011453Z VRB03KT 10SM CLR M02/M10 A3017 RMK AO2 SLP218 T10171100 50002
0186722247547852015010115537+40624-074669FM-15+0030KSMQ V0202705V003652200059N0160935N5+00065-01285102125ADDAA101000095GA1005+999999999GD10991+9999999GF100991999999999999999999MA1102105101745REMMET09101/01/15 10:53:02 METAR KSMQ 011553Z 27007KT 10SM CLR 01/M13 A3015 RMK AO2 SLP212 T00061128
0186722247547852015010116537+40624-074669FM-15+0030KSMQ V0209999N999992200059N0160935N5+00225-01285101915ADDAA101000095GA1005+999999999GD10991+9999999GF100991999999999999999999MA1101905101535REMMET09101/01/15 11:53:02 METAR KSMQ 011653Z      KT 10SM CLR 02/M13 A3009 RMK AO2 SLP191 T00221128
0255722247547852015010117537+40624-074669FM-15+0030KSMQ V0202205N005752200059N0160935N5+00285-01285101755ADDAA101000095GA1005+999999999GD10991+9999999GF100991999999999999999999KA1060M+00281KA2060N-01171MA1101735101375MD1890424+9999OC101035REMMET11201/01/15 12:53:02 METAR KSMQ 011753Z 22011G20KT 10SM CLR 03/M13 A3004 RMK AO2 SLP175 T00281128 10028 21117 58042
0186722247547852015010118537+40624-074669FM-15+0030KSMQ V0209999V003152200059N0160935N5+00395-01175101655ADDAA101000095GA1005+999999999GD10991+9999999GF100991999999999999999999MA1101635101265REMMET09101/01/15 13:53:02 METAR KSMQ 011853Z VRB06KT 10SM CLR 04/M12 A3001 RMK AO2 SLP165 T00391117
0197722247547852015010119537+40624-074669FM-15+0030KSMQ V0209999V002652200059N0160935N5+00445-01115101565ADDAA101000095GA1005+999999999GD10991+9999999GF100991999999999999999999MA1101565101205OC100775REMMET09401/01/15 14:53:02 METAR KSMQ 011953Z VRB05G15KT 10SM CLR 04/M11 A2999 RMK AO2 SLP156 T00441111
0217722247547852015010120537+40624-074669FM-15+0030KSMQ V0209999V003152200059N0160935N5+00445-01115101535ADDAA101000095GA1005+999999999GD10991+9999999GF100991999999999999999999MA1101525101165MD1690224+9999OC100775REMMET10001/01/15 15:53:02 METAR KSMQ 012053Z VRB06G15KT 10SM CLR 04/M11 A2998 RMK AO2 SLP153 T00441111 56022
0186722247547852015010121537+40624-074669FM-15+0030KSMQ V0209999V001552200059N0160935N5+00285-01115101535ADDAA101000095GA1005+999999999GD10991+9999999GF100991999999999999999999MA1101495101135REMMET09101/01/15 16:53:02 METAR KSMQ 012153Z VRB03KT 10SM CLR 03/M11 A2997 RMK AO2 SLP153 T00281111
0186722247547852015010122537+40624-074669FM-15+0030KSMQ V0201905N002652200059N0160935N5+00225-01065101535ADDAA101000095GA1005+999999999GD10991+9999999GF100991999999999999999999MA1101525101165REMMET09101/01/15 17:53:02 METAR KSMQ 012253Z 19005KT 10SM CLR 02/M11 A2998 RMK AO2 SLP153 T00221106
0244722247547852015010123537+40624-074669FM-15+0030KSMQ V0209999V002652200059N0160935N5+00175-00945101555ADDAA101000095GA1005+999999999GD10991+9999999GF100991999999999999999999KA1060M+00441KA2060N+00171MA1101525101165MD1390014+9999REMMET10901/01/15 18:53:02 METAR KSMQ 012353Z VRB05KT 10SM CLR 02/M09 A2998 RMK AO2 SLP155 T00171094 10044 20017 53001
0186722247547852015010200537+40624-074669FM-15+0030KSMQ V0202105N002152200059N0160935N5+00065-00945101595ADDAA101000095GA1005+999999999GD10991+9999999GF100991999999999999999999MA1101565101205REMMET09101/01/15 19:53:01 METAR KSMQ 020053Z 21004KT 10SM CLR 01/M09 A2999 RMK AO2 SLP159 T00061094
0186722247547852015010201537+40624-074669FM-15+0030KSMQ V0201905N002152200059N0160935N5+00005-00945101555ADDAA101000095GA1005+999999999GD10991+9999999GF100991999999999999999999MA1101525101165REMMET09101/01/15 20:53:02 METAR KSMQ 020153Z 19004KT 10SM CLR 00/M09 A2998 RMK AO2 SLP155 T00001094
0206722247547852015010202537+40624-074669FM-15+0030KSMQ V0209999V001552200059N0160935N5+00005-00945101615ADDAA101000095GA1005+999999999GD10991+9999999GF100991999999999999999999MA1101595101235MD1390074+9999REMMET09701/01/15 21:53:02 METAR KSMQ 020253Z VRB03KT 10SM CLR 00/M09 A3000 RMK AO2 SLP161 T00001094 53007
0187722247547852015010203537+40624-074669FM-15+0030KSMQ V0209999C000052200059N0160935N5-00175-00895101685ADDAA101000095GA1005+999999999GD10991+9999999GF100991999999999999999999MA1101665101305REMMET09201/01/15 22:53:02 METAR KSMQ 020353Z 00000KT 10SM CLR M02/M09 A3002 RMK AO2 SLP168 T10171089
0223722247547852015010204537+40624-074669FM-15+0030KSMQ V0209999C000052200059N0160935N5-00335-00895101695ADDAA101000095GA1005+999999999GD10991+9999999GF100991999999999999999999KA1240M+00441KA2240N-01171MA1101665101305REMMET10201/01/15 23:53:02 METAR KSMQ 020453Z 00000KT 10SM CLR M03/M09 A3002 RMK AO2 SLP169 T10331089 400441117
0886722247547852015010204596+40624-074669SOD  +0030KSMQ V020999999999999999999999999999+99999+99999999999ADDAA124000095KA1240M+00445KA2240N-01165MG1101494101524OE11240102823012525OE22240062622012355OE33240013999999995REMSOD73024 HR PRECIPITATION (IN):0.00  24 HR MAX TEMP (F):40 24 HR MAX TEMP TIME (LST):1553 24 HR MIN TEMP (F):11 24 HR MIN TEMP TIME (LST):0726 AVERAGE STATION PRESSURE:29.970 MINIMUM SEA LEVEL PRESSURE:29.98 TIME OF OCCURRENCE:1813 PEAK WIND SPEED (MPH):23  PEAK WIND DIR (DEG):230 PEAK WIND TIME (LST):1252  FASTEST 2MIN SPEED (MPH):14 FASTEST 2MIN DIR (DEG):220 FASTEST 2MIN TIME (LST):1235 AVERAGE WIND SPEED (MPH):3.1  24 HR AVG TEMP (F):26 HEATING DEGREE DAYS:39  COOLING DEGREE DAYS:0   LATEST DAY MAX TEMP (0700-1900 LST):40  LATEST NIGHT MIN TEMP(1900-0800 LST):11 HOURLY INCREMENTAL PRECIPITATION VALUES (IN):.00 0.00 0.00 0.00 0.00 0.00 0.00 0.00 0.00 0.00 0.00 0.00 0.00 0.00 0.00 0.00 0.00 0.00 0.00 0.00 0.00 0.00 0.00 0.00EQDR01     N7GJS072R02     N7GKS075
0245722247547852015010205537+40624-074669FM-15+0030KSMQ V0202205N001552200059N0160935N5-00225-00835101685ADDAA101000095GA1005+999999999GD10991+9999999GF100991999999999999999999KA1060M+00171KA2060N-00441MA1101665101305MD1090064+9999REMMET11001/02/15 00:53:02 METAR KSMQ 020553Z 22003KT 10SM CLR M02/M08 A3002 RMK AO2 SLP168 T10221083 10017 21044 50006
0187722247547852015010206537+40624-074669FM-15+0030KSMQ V0209999V001552200059N0160935N5-00115-00835101765ADDAA101000095GA1005+999999999GD10991+9999999GF100991999999999999999999MA1101735101375REMMET09201/02/15 01:53:02 METAR KSMQ 020653Z VRB03KT 10SM CLR M01/M08 A3004 RMK AO2 SLP176 T10111083
0187722247547852015010207537+40624-074669FM-15+0030KSMQ V0209999C000052200059N0160935N5-00175-00835101825ADDAA101000095GA1005+999999999GD10991+9999999GF100991999999999999999999MA1101795101435REMMET09201/02/15 02:53:02 METAR KSMQ 020753Z 00000KT 10SM CLR M02/M08 A3006 RMK AO2 SLP182 T10171083
0207722247547852015010208537+40624-074669FM-15+0030KSMQ V0202105N001552200059N0160935N5-00175-00835101855ADDAA101000095GA1005+999999999GD10991+9999999GF100991999999999999999999MA1101835101475MD1190174+9999REMMET09801/02/15 03:53:02 METAR KSMQ 020853Z 21003KT 10SM CLR M02/M08 A3007 RMK AO2 SLP185 T10171083 51017
0187722247547852015010209537+40624-074669FM-15+0030KSMQ V0209999V002152200059N0160935N5-00065-00835101895ADDAA101000095GA1005+999999999GD10991+9999999GF100991999999999999999999MA1101865101505REMMET09201/02/15 04:53:02 METAR KSMQ 020953Z VRB04KT 10SM CLR M01/M08 A3008 RMK AO2 SLP189 T10061083
0187722247547852015010210537+40624-074669FM-15+0030KSMQ V0209999V001552200059N0160935N5-00115-00835102025ADDAA101000095GA1005+999999999GD10991+9999999GF100991999999999999999999MA1102005101645REMMET09201/02/15 05:53:02 METAR KSMQ 021053Z VRB03KT 10SM CLR M01/M08 A3012 RMK AO2 SLP202 T10111083
0269722247547852015010211537+40624-074669FM-15+0030KSMQ V0209999V00215016765MN0160935N5+00005-00785102145ADDAA101000095GA1085+016765999GD14991+0167659GE19MSL   +99999+99999GF199999999999016761999999KA1060M+00001KA2060N-00331MA1102135101775MD1390294+9999REMMET11201/02/15 06:53:02 METAR KSMQ 021153Z VRB04KT 10SM OVC055 00/M08 A3016 RMK AO2 SLP214 T00001078 10000 21033 53029
0231722247547852015010212537+40624-074669FM-15+0030KSMQ V0209999N999992200059N0160935N5-00175-00785102215ADDAA101000095GA1045+021345999GD12991+0213459GE19AGL   +99999+99999GF104995999999021341999999MA1102205101845REMMET09501/02/15 07:53:02 METAR KSMQ 021253Z      KT 10SM SCT070 M02/M08 A3018 RMK AO2 SLP221 T10171078EQDD01      0ADE726
0211722247547852015010213537+40624-074669FM-15+0030KSMQ V0209999V00155021345MN0160935N5+00115-00725102315ADDAA101000095GA1085+021345999GD14991+0213459GE19MSL   +99999+99999GF199999999999021341999999MA1102305101945REMMET09401/02/15 08:53:02 METAR KSMQ 021353Z VRB03KT 10SM OVC070 01/M07 A3021 RMK AO2 SLP231 T00111072
0261722247547852015010214537+40624-074669FM-15+0030KSMQ V0202605V004652200059N0160935N5+00445-00785102385ADDAA101000095GA1045+021345999GD12991+0213459GE19AGL   +99999+99999GF104995999999021341999999MA1102375102015MD1290244+9999OC100985REMMET10301/02/15 09:53:02 METAR KSMQ 021453Z 26009G19KT 10SM SCT070 04/M08 A3023 RMK AO2 SLP238 T00441078 52024EQDD01      0ADE726
0186722247547852015010215537+40624-074669FM-15+0030KSMQ V0202805N003652200059N0160935N5+00505-00785102385ADDAA101000095GA1005+999999999GD10991+9999999GF100991999999999999999999MA1102375102015REMMET09101/02/15 10:53:02 METAR KSMQ 021553Z 28007KT 10SM CLR 05/M08 A3023 RMK AO2 SLP238 T00501078
0241722247547852015010216537+40624-074669FM-15+0030KSMQ V0202805V004652200059N0160935N5+00565-00785102305ADDAA101000095GA1045+015245999GD12991+0152459GE19AGL   +99999+99999GF104995999999015241999999MA1102275101915OC100985REMMET09701/02/15 11:53:02 METAR KSMQ 021653Z 28009G19KT 10SM SCT050 06/M08 A3020 RMK AO2 SLP230 T00561078EQDD01      0ADE726
0299722247547852015010217537+40624-074669FM-15+0030KSMQ V0202905V004152200059N0160935N5+00565-00785102305ADDAA101000095GA1025+015245999GD11991+0152459GE19AGL   +99999+99999GF102995999999015241999999KA1060M+00611KA2060N-00171MA1102275101915MD1790084+9999OC100775REMMET11501/02/15 12:53:02 METAR KSMQ 021753Z 29008G15KT 10SM FEW050 06/M08 A3020 RMK AO2 SLP230 T00561078 10061 21017 57008EQDD01      0ADE726
0241722247547852015010218537+40624-074669FM-15+0030KSMQ V0202805N004152200059N0160935N5+00615-00785102345ADDAA101000095GA1025+016765999GD11991+0167659GE19AGL   +99999+99999GF102995999999016761999999MA1102345101975OC100725REMMET09701/02/15 13:53:02 METAR KSMQ 021853Z 28008G14KT 10SM FEW055 06/M08 A3022 RMK AO2 SLP234 T00611078EQDD01      0ADE726
0230722247547852015010219537+40624-074669FM-15+0030KSMQ V0209999V003152200059N0160935N5+00565-00835102445ADDAA101000095GA1025+016765999GD11991+0167659GE19AGL   +99999+99999GF102995999999016761999999MA1102405102045REMMET09401/02/15 14:53:02 METAR KSMQ 021953Z VRB06KT 10SM FEW055 06/M08 A3024 RMK AO2 SLP244 T00561083EQDD01      0ADE726
0206722247547852015010220537+40624-074669FM-15+0030KSMQ V0202705N003652200059N0160935N5+00445-00785102475ADDAA101000095GA1005+999999999GD10991+9999999GF100991999999999999999999MA1102445102075MD1190174+9999REMMET09701/02/15 15:53:02 METAR KSMQ 022053Z 27007KT 10SM CLR 04/M08 A3025 RMK AO2 SLP247 T00441078 51017
0186722247547852015010221537+40624-074669FM-15+0030KSMQ V0209999C000052200059N0160935N5+00285-00785102595ADDAA101000095GA1005+999999999GD10991+9999999GF100991999999999999999999MA1102575102215REMMET09101/02/15 16:53:02 METAR KSMQ 022153Z 00000KT 10SM CLR 03/M08 A3029 RMK AO2 SLP259 T00281078
0186722247547852015010222537+40624-074669FM-15+0030KSMQ V0202705N001552200059N0160935N5+00065-00785102675ADDAA101000095GA1005+999999999GD10991+9999999GF100991999999999999999999MA1102645102285REMMET09101/02/15 17:53:02 METAR KSMQ 022253Z 27003KT 10SM CLR 01/M08 A3031 RMK AO2 SLP267 T00061078
0245722247547852015010223537+40624-074669FM-15+0030KSMQ V0209999C000052200059N0160935N5-00175-00785102775ADDAA101000095GA1005+999999999GD10991+9999999GF100991999999999999999999KA1060M+00611KA2060N-00171MA1102745102385MD1190294+9999REMMET11001/02/15 18:53:02 METAR KSMQ 022353Z 00000KT 10SM CLR M02/M08 A3034 RMK AO2 SLP277 T10171078 10061 21017 51029
0187722247547852015010300537+40624-074669FM-15+0030KSMQ V0209999C000052200059N0160935N5-00285-00785102865ADDAA101000095GA1005+999999999GD10991+9999999GF100991999999999999999999MA1102845102485REMMET09201/02/15 19:53:01 METAR KSMQ 030053Z 00000KT 10SM CLR M03/M08 A3037 RMK AO2 SLP286 T10281078
0187722247547852015010301537+40624-074669FM-15+0030KSMQ V0209999C000052200059N0160935N5-00395-00785102945ADDAA101000095GA1005+999999999GD10991+9999999GF100991999999999999999999MA1102915102555REMMET09201/02/15 20:53:01 METAR KSMQ 030153Z 00000KT 10SM CLR M04/M08 A3039 RMK AO2 SLP294 T10391078
0207722247547852015010302537+40624-074669FM-15+0030KSMQ V0209999C000052200059N0160935N5-00395-00785103005ADDAA101000095GA1005+999999999GD10991+9999999GF100991999999999999999999MA1102985102625MD1190234+9999REMMET09801/02/15 21:53:02 METAR KSMQ 030253Z 00000KT 10SM CLR M04/M08 A3041 RMK AO2 SLP300 T10391078 51023
0186722247547852015010303537+40624-074669FM-15+0030KSMQ V0209999C000052200059N0128755N5-00445-00785103035ADDAA101000095GA1005+999999999GD10991+9999999GF100991999999999999999999MA1103015102655REMMET09101/02/15 22:53:02 METAR KSMQ 030353Z 00000KT 8SM CLR M04/M08 A3042 RMK AO2 SLP303 T10441078
0223722247547852015010304537+40624-074669FM-15+0030KSMQ V0209999C000052200059N0160935N5-00565-00785103115ADDAA101000095GA1005+999999999GD10991+9999999GF100991999999999999999999KA1240M+00611KA2240N-00561MA1103085102725REMMET10201/02/15 23:53:02 METAR KSMQ 030453Z 00000KT 10SM CLR M06/M08 A3044 RMK AO2 SLP311 T10561078 400611056
0886722247547852015010304596+40624-074669SOD  +0030KSMQ V020999999999999999999999999999+99999+99999999999ADDAA124000095KA1240M+00615KA2240N-00555MG1101814101664OE11240120730012355OE22240080530012365OE33240017999999995REMSOD73024 HR PRECIPITATION (IN):0.00  24 HR MAX TEMP (F):43 24 HR MAX TEMP TIME (LST):1517 24 HR MIN TEMP (F):22 24 HR MIN TEMP TIME (LST):2359 AVERAGE STATION PRESSURE:30.065 MINIMUM SEA LEVEL PRESSURE:30.02 TIME OF OCCURRENCE:0107 PEAK WIND SPEED (MPH):27  PEAK WIND DIR (DEG):300 PEAK WIND TIME (LST):1235  FASTEST 2MIN SPEED (MPH):18 FASTEST 2MIN DIR (DEG):300 FASTEST 2MIN TIME (LST):1236 AVERAGE WIND SPEED (MPH):4.0  24 HR AVG TEMP (F):33 HEATING DEGREE DAYS:32  COOLING DEGREE DAYS:0   LATEST DAY MAX TEMP (0700-1900 LST):43  LATEST NIGHT MIN TEMP(1900-0800 LST):24 HOURLY INCREMENTAL PRECIPITATION VALUES (IN):.00 0.00 0.00 0.00 0.00 0.00 0.00 0.00 0.00 0.00 0.00 0.00 0.00 0.00 0.00 0.00 0.00 0.00 0.00 0.00 0.00 0.00 0.00 0.00EQDR01     N7GJS072R02     N7GKS075
0245722247547852015010305537+40624-074669FM-15+0030KSMQ V0203305N001552200059N0160935N5-00505-00835103145ADDAA101000095GA1005+999999999GD10991+9999999GF100991999999999999999999KA1060M-00171KA2060N-00561MA1103125102755MD1190144+9999REMMET11001/03/15 00:53:02 METAR KSMQ 030553Z 33003KT 10SM CLR M05/M08 A3045 RMK AO2 SLP314 T10501083 11017 21056 51014
0187722247547852015010306537+40624-074669FM-15+0030KSMQ V0209999C000052200059N0160935N5-00615-00835103195ADDAA101000095GA1005+999999999GD10991+9999999GF100991999999999999999999MA1103185102825REMMET09201/03/15 01:53:02 METAR KSMQ 030653Z 00000KT 10SM CLR M06/M08 A3047 RMK AO2 SLP319 T10611083
0187722247547852015010307537+40624-074669FM-15+0030KSMQ V0209999C000052200059N0160935N5-00615-00835103275ADDAA101000095GA1005+999999999GD10991+9999999GF100991999999999999999999MA1103255102895REMMET09201/03/15 02:53:02 METAR KSMQ 030753Z 00000KT 10SM CLR M06/M08 A3049 RMK AO2 SLP327 T10611083
0207722247547852015010308537+40624-074669FM-15+0030KSMQ V0209999C000052200059N0160935N5-00615-00835103315ADDAA101000095GA1005+999999999GD10991+9999999GF100991999999999999999999MA1103285102925MD1190174+9999REMMET09801/03/15 03:53:02 METAR KSMQ 030853Z 00000KT 10SM CLR M06/M08 A3050 RMK AO2 SLP331 T10611083 51017
0201722247547852015010309537+40624-074669FM-15+0030KSMQ V0209999C000052200059N0144845N5-00675-00895103405ADDAA101000095GA1005+999999999GD10991+9999999GF100991999999999999999999MA1103395103025WA1900099REMMET09701/03/15 04:53:02 METAR KSMQ 030953Z 00000KT 9SM CLR M07/M09 A3053 RMK AO2 SLP340 I1000 T10671089
0186722247547852015010310537+40624-074669FM-15+0030KSMQ V0209999C000052200059N0144845N5-00675-00895103415ADDAA101000095GA1005+999999999GD10991+9999999GF100991999999999999999999MA1103395103025REMMET09101/03/15 05:53:02 METAR KSMQ 031053Z 00000KT 9SM CLR M07/M09 A3053 RMK AO2 SLP341 T10671089
0266722247547852015010311537+40624-074669FM-15+0030KSMQ V0209999C000052200059N0160935N5-00675-00945103425ADDAA101000095GA1005+999999999GD10991+9999999GF100991999999999999999999KA1060M-00501KA2060N-00721MA1103395103025MD1190104+9999WA1900099REMMET12201/03/15 06:53:02 METAR KSMQ 031153Z 00000KT 10SM CLR M07/M09 A3053 RMK AO2 SLP342 I1000 I6000 T10671094 11050 21072 51010
0186722247547852015010312537+40624-074669FM-15+0030KSMQ V0209999C000052200059N0144845N5-00615-00785103495ADDAA101000095GA1005+999999999GD10991+9999999GF100991999999999999999999MA1103455103095REMMET09101/03/15 07:53:02 METAR KSMQ 031253Z 00000KT 9SM CLR M06/M08 A3055 RMK AO2 SLP349 T10611078
0186722247547852015010313537+40624-074669FM-15+0030KSMQ V0209999C000052200059N0144845N5-00225-00565103505ADDAA101000095GA1005+999999999GD10991+9999999GF100991999999999999999999MA1103495103125REMMET09101/03/15 08:53:02 METAR KSMQ 031353Z 00000KT 9SM CLR M02/M06 A3056 RMK AO2 SLP350 T10221056
0230722247547852015010314537+40624-074669FM-15+0030KSMQ V0200405N00265025915MN0144845N5+00115-00445103485ADDAA101000095GA1085+025915999GD14991+0259159GE19MSL   +99999+99999GF199999999999025911999999MA1103455103095MD1090064+9999REMMET09901/03/15 09:53:02 METAR KSMQ 031453Z 04005KT 9SM OVC085 01/M04 A3055 RMK AO2 SLP348 T00111044 50006
0249722247547852015010315537+40624-074669FM-15+0030KSMQ V0200905N00155010065MN0160935N5+00225-00445103385ADDAA101000095GA1075+010065999GA2085+021345999GD13991+0100659GD24991+0213459GE19MSL   +99999+99999GF199999999999010061999999MA1103355102995REMMET10101/03/15 10:53:02 METAR KSMQ 031553Z 09003KT 10SM BKN033 OVC070 02/M04 A3052 RMK AO2 SLP338 T00221044
0278722247547852015010316277+40624-074669FM-16+0030KSMQ V0209999C00005009455MN0028165N5+00225-00335999999ADDAA101000021AU110030015AW1715GA1075+009455999GA2085+018295999GD13991+0094559GD24991+0182959GE19MSL   +99999+99999GF199999999999009451999999MA1103325102955REMMET11301/03/15 11:27:02 SPECI KSMQ 031627Z 00000KT 1 3/4SM -SN BKN031 OVC060 02/M03 A3051 RMK AO2 SNB21 P0000 T00221033
0278722247547852015010316427+40624-074669FM-16+0030KSMQ V0200105N00215008535MN0040235N5+00115-00285999999ADDAA101000021AU110030015AW1715GA1075+008535999GA2085+010975999GD13991+0085359GD24991+0109759GE19MSL   +99999+99999GF199999999999008531999999MA1103285102925REMMET11301/03/15 11:42:02 SPECI KSMQ 031642Z 01004KT 2 1/2SM -SN BKN028 OVC036 01/M03 A3050 RMK AO2 SNB21 P0000 T00111028
0312722247547852015010316447+40624-074669FM-16+0030KSMQ V0200105N00155009455MN0048285N5+00115-00225999999ADDAA101000021AU110030015AW1715GA1045+007625999GA2075+009455999GA3085+012195999GD12991+0076259GD23991+0094559GD34991+0121959GE19MSL   +99999+99999GF199999999999007621999999MA1103255102895REMMET11601/03/15 11:44:02 SPECI KSMQ 031644Z 01003KT 3SM -SN SCT025 BKN031 OVC040 01/M02 A3049 RMK AO2 SNB21 P0000 T00111022
0252722247547852015010316516+40624-074669FM-16+0030KSMQ V0200205N00215012195MN0040235N5+00105-00205999999ADDAU110030015AW1715GA1025+007625999GA2045+009455999GA3085+012195999GD11991+0076259GD22991+0094559GD34991+0121959MA1103255102895REMMET11501/03/15 11:51:02 SPECI KSMQ 031651Z 02004KT 2 1/2SM -SN FEW025 SCT031 OVC040 01/M02 A3049 RMK AO2 SNB21 P0000 FIBI
0323722247547852015010316537+40624-074669FM-15+0030KSMQ V0200205N00155012195MN0040235N5+00115-00225103265ADDAA101000025AU110030015AW1715GA1025+007015999GA2075+012195999GA3085+015245999GD11991+0070159GD23991+0121959GD34991+0152459GE19MSL   +99999+99999GF199999999999007011999999MA1103255102895REMMET12701/03/15 11:53:02 METAR KSMQ 031653Z 02003KT 2 1/2SM -SN FEW023 BKN040 OVC050 01/M02 A3049 RMK AO2 SNB21 SLP326 P0000 T00111022
0306722247547852015010317087+40624-074669FM-16+0030KSMQ V0200505N00265015245MN0064375N5+00175-00175999999ADDAA101000231AU110030015AW1715GA1025+009145999GA2075+015245999GA3085+018295999GD11991+0091459GD23991+0152459GD34991+0182959GE19MSL   +99999+99999GF199999999999009141999999MA1103225102855REMMET11001/03/15 12:08:02 SPECI KSMQ 031708Z 05005KT 4SM -SN FEW030 BKN050 OVC060 02/M02 A3048 RMK AO2 P0001 T00171017
0438722247547852015010317537+40624-074669FM-15+0030KSMQ V0200105N00155010975MN0064375N5+00175-00175103245ADDAA101000395AA206000391AU110030015AW1715GA1025+007325999GA2075+010975999GA3085+018295999GD11991+0073259GD23991+0109759GD34991+0182959GE19MSL   +99999+99999GF199999999999007321999999KA1060M+00221KA2060N-00781MA1103225102855MD1690244+9999REMMET17201/03/15 12:53:02 METAR KSMQ 031753Z 01003KT 4SM -SN FEW024 BKN036 OVC060 02/M02 A3048 RMK AO2 UPB17E40RAB20E52SNE17B27E28B40 SLP324 P0001 60001 T00171017 10022 21078 56024EQDQ01  00028PRCP06
0279722247547852015010318127+40624-074669FM-16+0030KSMQ V0209999V00155006715MN0064375N5+00115-00175999999ADDAA101000021AU110020015AW1615GA1075+006715999GA2085+011285999GD13991+0067159GD24991+0112859GE19MSL   +99999+99999GF199999999999006711999999MA1103285102925REMMET11401/03/15 13:12:02 SPECI KSMQ 031812Z VRB03KT 4SM -RA BKN022 OVC037 01/M02 A3050 RMK AO2 RAB01SNE01 P0000 T00111017
0341722247547852015010318237+40624-074669FM-16+0030KSMQ V0200305N00265011895MN0040235N5+00115-00115999999ADDAA101000231AU110020015AU200001015AW1105AW2615GA1045+006405999GA2075+011895999GA3085+015245999GD12991+0064059GD23991+0118959GD34991+0152459GE19MSL   +99999+99999GF199999999999006401999999MA1103225102855REMMET12801/03/15 13:23:02 SPECI KSMQ 031823Z 03005KT 2 1/2SM -RA BR SCT021 BKN039 OVC050 01/M01 A3048 RMK AO2 RAB01SNE01 P0001 T00111011
0354722247547852015010318377+40624-074669FM-16+0030KSMQ V0209999C00005012505MN0020125N5+00115-00115999999ADDAA101000231AU110030015AU200001015AW1105AW2715GA1025+006405999GA2075+012505999GA3085+014945999GD11991+0064059GD23991+0125059GD34991+0149459GE19MSL   +99999+99999GF199999999999006401999999MA1103155102785REMMET14101/03/15 13:37:02 SPECI KSMQ 031837Z 00000KT 1 1/4SM -SN BR FEW021 BKN041 OVC049 01/M01 A3046 RMK AO2 RAB01E30SNE01B30 PRESFR P0001 T00111011
0354722247547852015010318537+40624-074669FM-15+0030KSMQ V0200705N00315011285MN0024145N5+00115-00065103085ADDAA101000395AU110030015AU200001015AW1105AW2715GA1045+005185999GA2075+011285999GA3085+014335999GD12991+0051859GD23991+0112859GD34991+0143359GE19MSL   +99999+99999GF199999999999005181999999MA1103055102685REMMET14101/03/15 13:53:02 METAR KSMQ 031853Z 07006KT 1 1/2SM -SN BR SCT017 BKN037 OVC047 01/M01 A3043 RMK AO2 RAB01E30SNE01B30 SLP308 P0001 T00111006
0337722247547852015010319067+40624-074669FM-16+0030KSMQ V0200805N00155011285MN0048285N5+00115-00065999999ADDAA101000021AU110020015AU200001015AW1105AW2615GA1045+005185999GA2075+011285999GA3085+019815999GD12991+0051859GD23991+0112859GD34991+0198159GE19MSL   +99999+99999GF199999999999005181999999MA1103055102685REMMET12401/03/15 14:06:02 SPECI KSMQ 031906Z 08003KT 3SM -RA BR SCT017 BKN037 OVC065 01/M01 A3043 RMK AO2 RAB06SNE06 P0000 T00111006
0337722247547852015010319197+40624-074669FM-16+0030KSMQ V0200805N00215004885MN0048285N5+00115-00065999999ADDAA101000231AU110020015AU200001015AW1105AW2615GA1045+003355999GA2075+004885999GA3085+010975999GD12991+0033559GD23991+0048859GD34991+0109759GE19MSL   +99999+99999GF199999999999003351999999MA1103055102685REMMET12401/03/15 14:19:02 SPECI KSMQ 031919Z 08004KT 3SM -RA BR SCT011 BKN016 OVC036 01/M01 A3043 RMK AO2 RAB06SNE06 P0001 T00111006
0337722247547852015010319247+40624-074669FM-16+0030KSMQ V0209999V00155003355MN0032195N5+00115-00065999999ADDAA101000231AU110020015AU200001015AW1105AW2615GA1075+003355999GA2075+004885999GA3085+011585999GD13991+0033559GD23991+0048859GD34991+0115859GE19MSL   +99999+99999GF199999999999003351999999MA1103085102725REMMET12401/03/15 14:24:02 SPECI KSMQ 031924Z VRB03KT 2SM -RA BR BKN011 BKN016 OVC038 01/M01 A3044 RMK AO2 RAB06SNE06 P0001 T00111006
0303722247547852015010319337+40624-074669FM-16+0030KSMQ V0209999C00005003355MN0024145N5+00115-00065999999ADDAA101000231AU110020015AU200001015AW1105AW2615GA1075+003355999GA2085+005185999GD13991+0033559GD24991+0051859GE19MSL   +99999+99999GF199999999999003351999999MA1103085102725REMMET12101/03/15 14:33:02 SPECI KSMQ 031933Z 00000KT 1 1/2SM -RA BR BKN011 OVC017 01/M01 A3044 RMK AO2 RAB06SNE06 P0001 T00111006
0261722247547852015010319437+40624-074669FM-16+0030KSMQ V0200605N00155002745MN0016095N5+00115-00065999999ADDAA101000531AU110020015AU200001015AW1105AW2615GA1085+002745999GD14991+0027459GE19MSL   +99999+99999GF199999999999002741999999MA1103055102685REMMET11001/03/15 14:43:02 SPECI KSMQ 031943Z 06003KT 1SM -RA BR OVC009 01/M01 A3043 RMK AO2 RAB06SNE06 P0002 T00111006
0280722247547852015010319537+40624-074669FM-15+0030KSMQ V0200405N00155002745MN0016095N5+00115-00065103075ADDAA101001095AU110020015AU200001015AW1105AW2615GA1085+002745999GD14991+0027451GE19MSL   +99999+99999GF199999999999002741999999MA1103055102685REMMET12901/03/15 14:53:02 METAR KSMQ 031953Z 04003KT 1SM -RA BR OVC009 01/M01 A3043 RMK AO2 RAB06SNE06 CIG 007V012 SLP307 P0003 T00111006
0254722247547852015010320377+40624-074669FM-16+0030KSMQ V0200505N00215003055MN0020125N5+00115-00065999999ADDAA101001531AU110020015AU200001015AW1105AW2615GA1085+003055999GD14991+0030559GE19MSL   +99999+99999GF199999999999003051999999MA1102985102625REMMET10301/03/15 15:37:02 SPECI KSMQ 032037Z 05004KT 1 1/4SM -RA BR OVC010 01/M01 A3041 RMK AO2 P0006 T00111006
0317722247547852015010320537+40624-074669FM-15+0030KSMQ V0209999V00315003055MN0028165N5+00115-00065102965ADDAA101001895AA203003091AU110020015AU200001015AW1105AW2615GA1085+003055999GD14991+0030559GE19MSL   +99999+99999GF199999999999003051999999MA1102955102585MD1690284+9999REMMET12201/03/15 15:53:02 METAR KSMQ 032053Z VRB06KT 1 3/4SM -RA BR OVC010 01/M01 A3040 RMK AO2 SLP296 P0008 60012 T00111006 56028EQDQ01  00308PRCP03
0291722247547852015010321157+40624-074669FM-16+0030KSMQ V0200805N00155003055MN0040235N5+00115+00005999999ADDAA101000231AU110020015AU200001015AW1105AW2615GA1075+003055999GA2085+004885999GD13991+0030559GD24991+0048859GE19MSL   +99999+99999GF199999999999003051999999MA1102915102555REMMET10901/03/15 16:15:02 SPECI KSMQ 032115Z 08003KT 2 1/2SM -RA BR BKN010 OVC016 01/00 A3039 RMK AO2 P0001 T00110000
0291722247547852015010321237+40624-074669FM-16+0030KSMQ V0200605N00215002445MN0028165N5+00115+00005999999ADDAA101000731AU110020015AU200001015AW1105AW2615GA1075+002445999GA2085+004275999GD13991+0024459GD24991+0042759GE19MSL   +99999+99999GF199999999999002441999999MA1102885102515REMMET10901/03/15 16:23:02 SPECI KSMQ 032123Z 06004KT 1 3/4SM -RA BR BKN008 OVC014 01/00 A3038 RMK AO2 P0003 T00110000
0249722247547852015010321377+40624-074669FM-16+0030KSMQ V0209999C00005002445MN0032195N5+00115+00005999999ADDAA101001031AU110020015AU200001015AW1105AW2615GA1085+002445999GD14991+0024459GE19MSL   +99999+99999GF199999999999002441999999MA1102885102515REMMET09801/03/15 16:37:02 SPECI KSMQ 032137Z 00000KT 2SM -RA BR OVC008 01/00 A3038 RMK AO2 P0004 T00110000
0260722247547852015010321537+40624-074669FM-15+0030KSMQ V0209999V00155002445MN0040235N5+00115+00005102855ADDAA101002395AU110020015AU200001015AW1105AW2615GA1085+002445999GD14991+0024459GE19MSL   +99999+99999GF199999999999002441999999MA1102815102455REMMET10901/03/15 16:53:02 METAR KSMQ 032153Z VRB03KT 2 1/2SM -RA BR OVC008 01/00 A3036 RMK AO2 SLP285 P0006 T00110000
0248722247547852015010322007+40624-074669FM-16+0030KSMQ V0209999C00005002445MN0048285N5+00115+00005999999ADDAA101000731AU120020015AU200001015AW1105AW2625GA1085+002445999GD14991+0024459GE19MSL   +99999+99999GF199999999999002441999999MA1102815102455REMMET09701/03/15 17:00:02 SPECI KSMQ 032200Z 00000KT 3SM RA BR OVC008 01/00 A3036 RMK AO2 P0003 T00110000
0248722247547852015010322077+40624-074669FM-16+0030KSMQ V0209999C00005002445MN0032195N5+00115+00005999999ADDAA101001531AU120020015AU200001015AW1105AW2625GA1085+002445999GD14991+0024459GE19MSL   +99999+99999GF199999999999002441999999MA1102815102455REMMET09701/03/15 17:07:02 SPECI KSMQ 032207Z 00000KT 2SM RA BR OVC008 01/00 A3036 RMK AO2 P0006 T00110000
0249722247547852015010322227+40624-074669FM-16+0030KSMQ V0200205N00155002445MN0048285N5+00175+00005999999ADDAA101002031AU110020015AU200001015AW1105AW2615GA1085+002445999GD14991+0024459GE19MSL   +99999+99999GF199999999999002441999999MA1102815102455REMMET09801/03/15 17:22:02 SPECI KSMQ 032222Z 02003KT 3SM -RA BR OVC008 02/00 A3036 RMK AO2 P0008 T00170000
0252722247547852015010322327+40624-074669FM-16+0030KSMQ V0203605N00155002445MN0040235N5+00175+00005999999ADDAA101002531AU120020015AU200001015AW1105AW2625GA1085+002445999GD14991+0024459GE19MSL   +99999+99999GF199999999999002441999999MA1102785102415REMMET10101/03/15 17:32:02 SPECI KSMQ 032232Z 36003KT 2 1/2SM RA BR OVC008 02/00 A3035 RMK AO2 P0010 T00170000
0255722247547852015010322537+40624-074669FM-15+0030KSMQ V0209999C00005002445MN0032195N5+00175+00065102795ADDAA101003395AU120020015AU200001015AW1105AW2625GA1085+002445999GD14991+0024459GE19MSL   +99999+99999GF199999999999002441999999MA1102785102415REMMET10401/03/15 17:53:02 METAR KSMQ 032253Z 00000KT 2SM RA BR OVC008 02/01 A3035 RMK AO2 SLP279 P0014 T00170006
0249722247547852015010323327+40624-074669FM-16+0030KSMQ V0200505N00155002445MN0048285N5+00225+00065999999ADDAA101002231AU110020015AU200001015AW1105AW2615GA1085+002445999GD14991+0024459GE19MSL   +99999+99999GF199999999999002441999999MA1102685102315REMMET09801/03/15 18:32:02 SPECI KSMQ 032332Z 05003KT 3SM -RA BR OVC008 02/01 A3032 RMK AO2 P0009 T00220006
0253722247547852015010323457+40624-074669FM-16+0030KSMQ V0200405N00155002445MN0040235N5+00225+00065999999ADDAA101003331AU110020015AU200001015AW1105AW2615GA1085+002445999GD14991+0024459GE19MSL   +99999+99999GF199999999999002441999999MA1102645102285REMMET10201/03/15 18:45:02 SPECI KSMQ 032345Z 04003KT 2 1/2SM -RA BR OVC008 02/01 A3031 RMK AO2 P0013 T00220006
0185722247547852015010323516+40624-074669FM-16+0030KSMQ V0200505N00215002745MN0048285N5+00205+00105999999ADDAU110020015AU200001015AW1105AW2615GA1085+002745999GD14991+0027459MA1102645102285REMMET09301/03/15 18:51:02 SPECI KSMQ 032351Z 05004KT 3SM -RA BR OVC009 02/01 A3031 RMK AO2 P0014 FIBI
0349722247547852015010323537+40624-074669FM-15+0030KSMQ V0200405N00155002745MN0048285N5+00225+00065102655ADDAA101003695AA206011991AU120020015AU200001015AW1105AW2625GA1085+002745999GD14991+0027459GE19MSL   +99999+99999GF199999999999002741999999KA1060M+00221KA2060N+00111MA1102645102285MD1890314+9999REMMET12801/03/15 18:53:02 METAR KSMQ 032353Z 04003KT 3SM RA BR OVC009 02/01 A3031 RMK AO2 SLP265 P0015 60047 T00220006 10022 20011 58031EQDQ01  01198PRCP06
0253722247547852015010400447+40624-074669FM-16+0030KSMQ V0209999C00005002445MN0028165N5+00225+00115999999ADDAA101001531AU110020015AU200001015AW1105AW2615GA1085+002445999GD14991+0024459GE19MSL   +99999+99999GF199999999999002441999999MA1102515102145REMMET10201/03/15 19:44:01 SPECI KSMQ 040044Z 00000KT 1 3/4SM -RA BR OVC008 02/01 A3027 RMK AO2 P0006 T00220011
0260722247547852015010400537+40624-074669FM-15+0030KSMQ V0200305N00155002445MN0028165N5+00225+00115102495ADDAA101001595AU110020015AU200001015AW1105AW2615GA1085+002445999GD14991+0024459GE19MSL   +99999+99999GF199999999999002441999999MA1102475102115REMMET10901/03/15 19:53:01 METAR KSMQ 040053Z 03003KT 1 3/4SM -RA BR OVC008 02/01 A3026 RMK AO2 SLP249 P0007 T00220011
0250722247547852015010401027+40624-074669FM-16+0030KSMQ V0209999C00005002445MN0040235N5+00225+00115999999ADDAA101000021AU100001015AW1105GA1085+002445999GD14991+0024459GE19MSL   +99999+99999GF199999999999002441999999MA1102445102075REMMET11601/03/15 20:02:01 SPECI KSMQ 040102Z 00000KT 2 1/2SM BR OVC008 02/01 A3025 RMK AO2 RAE0054UPB0054E00 P0000 T00220011
0280722247547852015010401347+40624-074669FM-16+0030KSMQ V0209999C00005002135MN0024145N5+00225+00115999999ADDAA101000731AU110020015AU200001015AW1105AW2615GA1085+002135999GD14991+0021359GE19MSL   +99999+99999GF199999999999002131999999MA1102375102015REMMET12901/03/15 20:34:01 SPECI KSMQ 040134Z 00000KT 1 1/2SM -RA BR OVC007 02/01 A3023 RMK AO2 RAE0054B13UPB0054E00B06E28 P0003 T00220011
0280722247547852015010401447+40624-074669FM-16+0030KSMQ V0209999C00005001835MN0024145N5+00225+00115999999ADDAA101001031AU110020015AU200001015AW1105AW2615GA1085+001835999GD14991+0018359GE19MSL   +99999+99999GF199999999999001831999999MA1102345101975REMMET12901/03/15 20:44:01 SPECI KSMQ 040144Z 00000KT 1 1/2SM -RA BR OVC006 02/01 A3022 RMK AO2 RAE0054B13UPB0054E00B06E28 P0004 T00220011
0286722247547852015010401537+40624-074669FM-15+0030KSMQ V0203305N00155001835MN0020125N5+00225+00115102335ADDAA101002095AU120020015AU200001015AW1105AW2625GA1085+001835999GD14991+0018359GE19MSL   +99999+99999GF199999999999001831999999MA1102305101945REMMET13501/03/15 20:53:02 METAR KSMQ 040153Z 33003KT 1 1/4SM RA BR OVC006 02/01 A3021 RMK AO2 RAE0054B13UPB0054E00B06E28 SLP233 P0007 T00220011
0253722247547852015010402097+40624-074669FM-16+0030KSMQ V0200105N00215001835MN0040235N5+00225+00115999999ADDAA101000531AU110020015AU200001015AW1105AW2615GA1085+001835999GD14991+0018359GE19MSL   +99999+99999GF199999999999001831999999MA1102245101875REMMET10201/03/15 21:09:02 SPECI KSMQ 040209Z 01004KT 2 1/2SM -RA BR OVC006 02/01 A3019 RMK AO2 P0002 T00220011
0249722247547852015010402247+40624-074669FM-16+0030KSMQ V0200105N00215002135MN0032195N5+00225+00115999999ADDAA101001031AU110020015AU200001015AW1105AW2615GA1085+002135999GD14991+0021359GE19MSL   +99999+99999GF199999999999002131999999MA1102205101845REMMET09801/03/15 21:24:02 SPECI KSMQ 040224Z 01004KT 2SM -RA BR OVC007 02/01 A3018 RMK AO2 P0004 T00220011
0312722247547852015010402537+40624-074669FM-15+0030KSMQ V0200505N00155002135MN0048285N5+00285+00175102115ADDAA101001595AA203005191AU110020015AU200001015AW1105AW2615GA1085+002135999GD14991+0021359GE19MSL   +99999+99999GF199999999999002131999999MA1102105101745MD1890544+9999REMMET11701/03/15 21:53:02 METAR KSMQ 040253Z 05003KT 3SM -RA BR OVC007 03/02 A3015 RMK AO2 SLP211 P0006 60020 T00280017 58054EQDQ01  00508PRCP03
0253722247547852015010403237+40624-074669FM-16+0030KSMQ V0203305N00215002135MN0040235N5+00285+00175999999ADDAA101001031AU110020015AU200001015AW1105AW2615GA1085+002135999GD14991+0021359GE19MSL   +99999+99999GF199999999999002131999999MA1102035101675REMMET10201/03/15 22:23:02 SPECI KSMQ 040323Z 33004KT 2 1/2SM -RA BR OVC007 03/02 A3013 RMK AO2 P0004 T00280017
0242722247547852015010403377+40624-074669FM-16+0030KSMQ V0200105N00215002135MN0048285N5+00285+00175999999ADDAA101001231AU100001015AW1105GA1085+002135999GD14991+0021359GE19MSL   +99999+99999GF199999999999002131999999MA1102005101645REMMET10801/03/15 22:37:02 SPECI KSMQ 040337Z 01004KT 3SM BR OVC007 03/02 A3012 RMK AO2 RAE35UPB35E37 P0005 T00280017
0260722247547852015010403497+40624-074669FM-16+0030KSMQ V0200205N00215002135MN0040235N5+00305+00205999999ADDAA101001231AU110020015AU200001015AW1105AW2615GA1085+002135999GD14991+0021359GE19MSL   +99999+99999GF199999999999002131999999MA1101965101605REMMET10901/03/15 22:49:02 SPECI KSMQ 040349Z 02004KT 2 1/2SM -RA BR OVC007 03/02 A3011 RMK AO2 RAE35B44UPB35E37 P0005
0255722247547852015010403537+40624-074669FM-15+0030KSMQ V0203605N00265002135MN0048285N5+00285+00175101975ADDAA101001095AU100001015AW1105GA1085+002135999GD14991+0021359GE19MSL   +99999+99999GF199999999999002131999999MA1101965101605REMMET12101/03/15 22:53:02 METAR KSMQ 040353Z 36005KT 3SM BR OVC007 03/02 A3011 RMK AO2 RAE35B44E53UPB35E37 SLP197 P0005 T00280017
0215722247547852015010404017+40624-074669FM-16+0030KSMQ V0203605N00155002135MN0040235N5+00285+00175999999ADDAU100001015AW1105GA1085+002135999GD14991+0021359GE19MSL   +99999+99999GF199999999999002131999999MA1101935101575REMMET09201/03/15 23:01:02 SPECI KSMQ 040401Z 36003KT 2 1/2SM BR OVC007 03/02 A3010 RMK AO2 T00280017
0262722247547852015010404347+40624-074669FM-16+0030KSMQ V0209999V00155002135MN0048285N5+00335+00225999999ADDAA101001731AU120020015AU200001015AW1105AW2625GA1085+002135999GD14991+0021359GE19MSL   +99999+99999GF199999999999002131999999MA1101835101475REMMET11101/03/15 23:34:02 SPECI KSMQ 040434Z VRB03KT 3SM RA BR OVC007 03/02 A3007 RMK AO2 UPB05E07RAB07 P0007 T00330022
0305722247547852015010404537+40624-074669FM-15+0030KSMQ V0200505N00215002445MN0048285N5+00335+00225101805ADDAA101004395AU120020015AU200001015AW1105AW2625GA1085+002445999GD14991+0024459GE19MSL   +99999+99999GF199999999999002441999999KA1240M+00331KA2240N-00781MA1101795101435REMMET12801/03/15 23:53:02 METAR KSMQ 040453Z 05004KT 3SM RA BR OVC008 03/02 A3006 RMK AO2 UPB05E07RAB07 SLP180 P0015 T00330022 400331078
0886722247547852015010404596+40624-074669SOD  +0030KSMQ V020999999999999999999999999999+99999+99999999999ADDAA124022995KA1240M+00335KA2240N-00775MG1102714101794OE11240062604015505OE22240040209013525OE33240012199999995REMSOD73024 HR PRECIPITATION (IN):0.90  24 HR MAX TEMP (F):38 24 HR MAX TEMP TIME (LST):2359 24 HR MIN TEMP (F):18 24 HR MIN TEMP TIME (LST):0731 AVERAGE STATION PRESSURE:30.330 MINIMUM SEA LEVEL PRESSURE:30.06 TIME OF OCCURRENCE:2359 PEAK WIND SPEED (MPH):14  PEAK WIND DIR (DEG):40  PEAK WIND TIME (LST):1550  FASTEST 2MIN SPEED (MPH):9  FASTEST 2MIN DIR (DEG):90  FASTEST 2MIN TIME (LST):1352 AVERAGE WIND SPEED (MPH):2.7  24 HR AVG TEMP (F):28 HEATING DEGREE DAYS:37  COOLING DEGREE DAYS:0   LATEST DAY MAX TEMP (0700-1900 LST):36  LATEST NIGHT MIN TEMP(1900-0800 LST):18 HOURLY INCREMENTAL PRECIPITATION VALUES (IN):.00 0.00 0.00 0.00 0.00 0.00 0.00 0.00 0.00 0.00 0.00 T    0.01 0.01 0.04 0.07 0.09 0.13 0.14 0.06 0.08 0.06 0.04 0.17EQDR01     N7GJS072R02     N7GKS075
0248722247547852015010405077+40624-074669FM-16+0030KSMQ V0203305N00155002745MN0032195N5+00285+00175999999ADDAA101001031AU120020015AU200001015AW1105AW2625GA1085+002745999GD14991+0027459GE19MSL   +99999+99999GF199999999999002741999999MA1101765101405REMMET09701/04/15 00:07:02 SPECI KSMQ 040507Z 33003KT 2SM RA BR OVC009 03/02 A3005 RMK AO2 P0004 T00280017
0249722247547852015010405217+40624-074669FM-16+0030KSMQ V0203105N00155002745MN0080475N5+00285+00175999999ADDAA101001031AU110020015AU200001015AW1105AW2615GA1085+002745999GD14991+0027459GE19MSL   +99999+99999GF199999999999002741999999MA1101735101375REMMET09801/04/15 00:21:02 SPECI KSMQ 040521Z 31003KT 5SM -RA BR OVC009 03/02 A3004 RMK AO2 P0004 T00280017
0350722247547852015010405537+40624-074669FM-15+0030KSMQ V0209999C00005002445MN0048285N5+00335+00225101685ADDAA101001095AA206011491AU110020015AU200001015AW1105AW2615GA1085+002445999GD14991+0024459GE19MSL   +99999+99999GF199999999999002441999999KA1060M+00331KA2060N+00221MA1101665101305MD1890294+9999REMMET12901/04/15 00:53:02 METAR KSMQ 040553Z 00000KT 3SM -RA BR OVC008 03/02 A3002 RMK AO2 SLP168 P0005 60045 T00330022 10033 20022 58029EQDQ01  01148PRCP06
0249722247547852015010406397+40624-074669FM-16+0030KSMQ V0209999C00005002135MN0032195N5+00335+00225999999ADDAA101000531AU110020015AU200001015AW1105AW2615GA1085+002135999GD14991+0021359GE19MSL   +99999+99999GF199999999999002131999999MA1101595101235REMMET09801/04/15 01:39:02 SPECI KSMQ 040639Z 00000KT 2SM -RA BR OVC007 03/02 A3000 RMK AO2 P0002 T00330022
0256722247547852015010406537+40624-074669FM-15+0030KSMQ V0203205N00265002135MN0032195N5+00285+00175101615ADDAA101000595AU110020015AU200001015AW1105AW2615GA1085+002135999GD14991+0021359GE19MSL   +99999+99999GF199999999999002131999999MA1101595101235REMMET10501/04/15 01:53:02 METAR KSMQ 040653Z 32005KT 2SM -RA BR OVC007 03/02 A3000 RMK AO2 SLP161 P0003 T00280017
0236722247547852015010407037+40624-074669FM-16+0030KSMQ V0203405N00155002135MN0064375N5+00335+00225999999ADDAA101000021AU100001015AW1105GA1085+002135999GD14991+0021359GE19MSL   +99999+99999GF199999999999002131999999MA1101595101235REMMET10201/04/15 02:03:02 SPECI KSMQ 040703Z 34003KT 4SM BR OVC007 03/02 A3000 RMK AO2 RAE0655 P0000 T00330022
0243722247547852015010407537+40624-074669FM-15+0030KSMQ V0209999C00005002445MN0064375N5+00335+00225101555ADDAA101000095AU100001015AW1105GA1085+002445999GD14991+0024459GE19MSL   +99999+99999GF199999999999002441999999MA1101525101165REMMET10901/04/15 02:53:02 METAR KSMQ 040753Z 00000KT 4SM BR OVC008 03/02 A2998 RMK AO2 RAE0655 SLP155 P0000 T00330022
0211722247547852015010408127+40624-074669FM-16+0030KSMQ V0209999C00005002135MN0032195N5+00335+00225999999ADDAU100001015AW1105GA1085+002135999GD14991+0021359GE19MSL   +99999+99999GF199999999999002131999999MA1101495101135REMMET08801/04/15 03:12:02 SPECI KSMQ 040812Z 00000KT 2SM BR OVC007 03/02 A2997 RMK AO2 T00330022
0215722247547852015010408227+40624-074669FM-16+0030KSMQ V0209999C00005002135MN0020125N5+00285+00225999999ADDAU100001015AW1105GA1085+002135999GD14991+0021359GE19MSL   +99999+99999GF199999999999002131999999MA1101525101165REMMET09201/04/15 03:22:02 SPECI KSMQ 040822Z 00000KT 1 1/4SM BR OVC007 03/02 A2998 RMK AO2 T00280022
0211722247547852015010408337+40624-074669FM-16+0030KSMQ V0209999C00005001835MN0016095N5+00285+00175999999ADDAU100001015AW1105GA1085+001835999GD14991+0018359GE19MSL   +99999+99999GF199999999999001831999999MA1101495101135REMMET08801/04/15 03:33:02 SPECI KSMQ 040833Z 00000KT 1SM BR OVC006 03/02 A2997 RMK AO2 T00280017
0160722247547852015010408516+40624-074669FM-16+0030KSMQ V0209999C00005001835MN0012075N5+00305+00205999999ADDAU100001015AW1105GA1085+001835999GD14991+0018359MA1101495101135REMMET08501/04/15 03:51:02 SPECI KSMQ 040851Z 00000KT 3/4SM BR OVC006 03/02 A2997 RMK AO2 FIBI
0268722247547852015010408537+40624-074669FM-15+0030KSMQ V0209999C00005001835MN0012075N5+00225+00175101495ADDAA101000095AA203000891AU100001015AW1105GA1085+001835999GD14991+0018359GE19MSL   +99999+99999GF199999999999001831999999MA1101465101105MD1690204+9999REMMET10901/04/15 03:53:02 METAR KSMQ 040853Z 00000KT 3/4SM BR OVC006 02/02 A2996 RMK AO2 SLP149 60003 T00220017 56020
0230722247547852015010409537+40624-074669FM-15+0030KSMQ V0209999C00005001525WN0008055N5+00285+00175101435ADDAA101000095AU100002015AW1305GA1095+001525999GD15991+0015259GE19MSL   +99999+99999GF109991999999001521999999MA1101425101065REMMET09601/04/15 04:53:02 METAR KSMQ 040953Z 00000KT 1/2SM FG VV005 03/02 A2995 RMK AO2 SLP143 T00280017
0256722247547852015010410057+40624-074669FM-16+0030KSMQ V0201705N00155001225WN0008055N5+00285+00175999999ADDAA101000021AU110020015AU200002015AW1305AW2615GA1095+001225999GD15991+0012259GE19MSL   +99999+99999GF109991999999001221999999MA1101425101065REMMET10501/04/15 05:05:02 SPECI KSMQ 041005Z 17003KT 1/2SM -RA FG VV004 03/02 A2995 RMK AO2 RAB00 P0000 T00280017
0269722247547852015010410537+40624-074669FM-15+0030KSMQ V0201805N00155001525WN0008055N5+00285+00225101435ADDAA101000395AU110020015AU200002015AW1305AW2615GA1095+001525999GD15991+0015259GE19MSL   +99999+99999GF109991999999001521999999MA1101425101065REMMET11801/04/15 05:53:02 METAR KSMQ 041053Z 18003KT 1/2SM -RA FG VV005 03/02 A2995 RMK AO2 RAB00E23B45 SLP143 P0001 T00280022
0250722247547852015010411077+40624-074669FM-16+0030KSMQ V0201705N00155003055WN0008055N5+00285+00225999999ADDAA101000021AU110020015AU200002015AW1305AW2615GA1095+003055999GD15991+0030559GE19MSL   +99999+99999GF109991999999003051999999MA1101395101035REMMET09901/04/15 06:07:02 SPECI KSMQ 041107Z 17003KT 1/2SM -RA FG VV010 03/02 A2994 RMK AO2 P0000 T00280022
0327722247547852015010411227+40624-074669FM-16+0030KSMQ V0201705N00265006715MN0012075N5+00285+00225999999ADDAA101000231AU110020015AU200001015AW1105AW2615GA1025+003965999GA2075+006715999GA3085+016765999GD11991+0039659GD23991+0067159GD34991+0167659GE19MSL   +99999+99999GF199999999999003961999999MA1101395101035REMMET11401/04/15 06:22:02 SPECI KSMQ 041122Z 17005KT 3/4SM -RA BR FEW013 BKN022 OVC055 03/02 A2994 RMK AO2 P0001 T00280022
0328722247547852015010411297+40624-074669FM-16+0030KSMQ V0201705N00265003965MN0020125N5+00335+00225999999ADDAA101000731AU120020015AU200001015AW1105AW2625GA1075+003965999GA2075+007325999GA3085+015245999GD13991+0039659GD23991+0073259GD34991+0152459GE19MSL   +99999+99999GF199999999999003961999999MA1101355100995REMMET11501/04/15 06:29:02 SPECI KSMQ 041129Z 17005KT 1 1/4SM RA BR BKN013 BKN024 OVC050 03/02 A2993 RMK AO2 P0003 T00330022
0325722247547852015010411357+40624-074669FM-16+0030KSMQ V0201805N00215004275MN0048285N5+00335+00225999999ADDAA101001031AU110020015AU200001015AW1105AW2615GA1075+004275999GA2075+010675999GA3085+015245999GD13991+0042759GD23991+0106759GD34991+0152459GE19MSL   +99999+99999GF199999999999004271999999MA1101395101035REMMET11201/04/15 06:35:02 SPECI KSMQ 041135Z 18004KT 3SM -RA BR BKN014 BKN035 OVC050 03/02 A2994 RMK AO2 P0004 T00330022
0421722247547852015010411537+40624-074669FM-15+0030KSMQ V0201905N00155004275MN0064375N5+00395+00285101415ADDAA101001895AA206002591AA324026291AU110020015AU200001015AW1105AW2615GA1075+004275999GA2085+021345999GD13991+0042759GD24991+0213459GE19MSL   +99999+99999GF199999999999004271999999KA1060M+00391KA2060N+00221MA1101395101035MD1690074+9999REMMET14201/04/15 06:53:02 METAR KSMQ 041153Z 19003KT 4SM -RA BR BKN014 OVC070 04/03 A2994 RMK AO2 SLP141 P0006 60010 70103 T00390028 10039 20022 56007EQDQ01  00258PRCP06Q02  02618PRCP24
0317722247547852015010412537+40624-074669FM-15+0030KSMQ V0201905N00215028965MN0096565N5+00395+00285101385ADDAA101000025AU100001015AW1105GA1045+004885999GA2075+028965999GA3075+033535999GD12991+0048859GD23991+0289659GD33991+0335359GE19MSL   +99999+99999GF199999999999004881999999MA1101355100995REMMET12101/04/15 07:53:02 METAR KSMQ 041253Z 19004KT 6SM BR SCT016 BKN095 BKN110 04/03 A2993 RMK AO2 RAE21 SLP138 P0001 T00390028
0303722247547852015010413517+40624-074669FM-16+0030KSMQ V0201805N00155005495MN0112655N5+00505+00405999999ADDAA101000531AU110020015AW1615GA1025+002135999GA2075+005495999GA3085+033535999GD11991+0021359GD23991+0054959GD34991+0335359GE19MSL   +99999+99999GF199999999999002131999999MA1101295100935REMMET10701/04/15 08:51:02 SPECI KSMQ 041351Z 18003KT 7SM -RA FEW007 BKN018 OVC110 05/04 A2991 RMK AO2 RAB1255 P0002
0320722247547852015010413527+40624-074669FM-15+0030KSMQ V0201905N00155005495MN0128755N5+00505+00445101295ADDAA101000595AU110020015AW1615GA1025+002135999GA2075+005495999GA3085+033535999GD11991+0021359GD23991+0054959GD34991+0335359GE19MSL   +99999+99999GF199999999999002131999999MA1101295100935REMMET12401/04/15 08:52:02 METAR KSMQ 041352Z 19003KT 8SM -RA FEW007 BKN018 OVC110 05/04 A2991 RMK AO2 RAB1255 SLP129 P0002 T00500044
0325722247547852015010414177+40624-074669FM-16+0030KSMQ V0209999C00005001525MN0096565N5+00565+00445999999ADDAA101000021AU110020015AU200001015AW1105AW2615GA1075+001525999GA2075+003055999GA3085+004885999GD13991+0015259GD23991+0030559GD34991+0048859GE19MSL   +99999+99999GF199999999999001521999999MA1101225100865REMMET11201/04/15 09:17:02 SPECI KSMQ 041417Z 00000KT 6SM -RA BR BKN005 BKN010 OVC016 06/04 A2989 RMK AO2 P0000 T00560044
0304722247547852015010414537+40624-074669FM-15+0030KSMQ V0209999V00155001525MN0048285N5+00615+00505101035ADDAA101000025AA203000891AU100001015AW1105GA1085+001525999GD14991+0015259GE19MSL   +99999+99999GF199999999999001521999999MA1101025100665MD1890384+9999REMMET12601/04/15 09:53:02 METAR KSMQ 041453Z VRB03KT 3SM BR OVC005 06/05 A2983 RMK AO2 RAE34 PRESFR SLP103 P0000 60003 T00610050 58038EQDQ01  00078PRCP03
0236722247547852015010415537+40624-074669FM-15+0030KSMQ V0209999V00215001835MN0080475N5+00725+00615100965ADDAA101000095AU100001015AW1105GA1085+001835999GD14991+0018359GE19MSL   +99999+99999GF199999999999001831999999MA1100955100595REMMET10201/04/15 10:53:02 METAR KSMQ 041553Z VRB04KT 5SM BR OVC006 07/06 A2981 RMK AO2 PRESFR SLP096 T00720061
0222722247547852015010416237+40624-074669FM-16+0030KSMQ V0202805N00215001525MN0040235N5+00785+00675999999ADDAU100001015AW1105GA1085+001525999GD14991+0015259GE19MSL   +99999+99999GF199999999999001521999999MA1101025100665REMMET09901/04/15 11:23:02 SPECI KSMQ 041623Z 28004KT 2 1/2SM BR OVC005 08/07 A2983 RMK AO2 PRESRR T00780067
0211722247547852015010416267+40624-074669FM-16+0030KSMQ V0209999C00005001225MN0048285N5+00785+00675999999ADDAU100001015AW1105GA1085+001225999GD14991+0012259GE19MSL   +99999+99999GF199999999999001221999999MA1100985100625REMMET08801/04/15 11:26:02 SPECI KSMQ 041626Z 00000KT 3SM BR OVC004 08/07 A2982 RMK AO2 T00780067
0211722247547852015010416387+40624-074669FM-16+0030KSMQ V0209999V00155001225MN0032195N5+00785+00675999999ADDAU100001015AW1105GA1085+001225999GD14991+0012259GE19MSL   +99999+99999GF199999999999001221999999MA1100915100565REMMET08801/04/15 11:38:02 SPECI KSMQ 041638Z VRB03KT 2SM BR OVC004 08/07 A2980 RMK AO2 T00780067
0231722247547852015010416537+40624-074669FM-15+0030KSMQ V0201905N00155001225MN0012075N5+00785+00675100805ADDAA101000095AU100001015AW1105GA1085+001225999GD14991+0012259GE19MSL   +99999+99999GF199999999999001221999999MA1100785100425REMMET09701/04/15 11:53:02 METAR KSMQ 041653Z 19003KT 3/4SM BR OVC004 08/07 A2976 RMK AO2 SLP080 T00780067
0212722247547852015010417397+40624-074669FM-16+0030KSMQ V0201205N00265001225WN0004025N5+00835+00725999999ADDAU100002015AW1305GA1095+001225999GD15991+0012259GE19MSL   +99999+99999GF109991999999001221999999MA1100645100295REMMET08901/04/15 12:39:02 SPECI KSMQ 041739Z 12005KT 1/4SM FG VV004 08/07 A2972 RMK AO2 T00830072
0203722247547852015010417517+40624-074669FM-16+0030KSMQ V0209999C00005001225MN0012075N5+00805+00705999999ADDAU100001015AW1105GA1085+001225999GD14991+0012259GE19MSL   +99999+99999GF199999999999001221999999MA1100855100495REMMET08001/04/15 12:51:02 SPECI KSMQ 041751Z 00000KT 3/4SM BR OVC004 08/07 A2978 RMK AO2
0304722247547852015010417537+40624-074669FM-15+0030KSMQ V0209999C00005001225MN0016095N5+00835+00725100845ADDAA101000095AA206000891AU100001015AW1105GA1085+001225999GD14991+0012259GE19MSL   +99999+99999GF199999999999001221999999KA1060M+00831KA2060N+00391MA1100815100455MD1690124+9999REMMET11901/04/15 12:53:02 METAR KSMQ 041753Z 00000KT 1SM BR OVC004 08/07 A2977 RMK AO2 SLP084 60003 T00830072 10083 20039 56012
0227722247547852015010418207+40624-074669FM-16+0030KSMQ V0209999C00005001225MN0040235N5+00895+00785999999ADDAU100001015AW1105GA1085+001225999GD14991+0012251GE19MSL   +99999+99999GF199999999999001221999999MA1100755100395REMMET10401/04/15 13:20:02 SPECI KSMQ 041820Z 00000KT 2 1/2SM BR OVC004 09/08 A2975 RMK AO2 CIG 003V007 T00890078
0223722247547852015010418277+40624-074669FM-16+0030KSMQ V0209999V00155001525MN0080475N5+00895+00785999999ADDAU100001015AW1105GA1085+001525999GD14991+0015251GE19MSL   +99999+99999GF199999999999001521999999MA1100755100395REMMET10001/04/15 13:27:02 SPECI KSMQ 041827Z VRB03KT 5SM BR OVC005 09/08 A2975 RMK AO2 CIG 003V007 T00890078
0211722247547852015010418447+40624-074669FM-16+0030KSMQ V0202305N00155002135MN0096565N5+00895+00785999999ADDAU100001015AW1105GA1085+002135999GD14991+0021359GE19MSL   +99999+99999GF199999999999002131999999MA1100755100395REMMET08801/04/15 13:44:02 SPECI KSMQ 041844Z 23003KT 6SM BR OVC007 09/08 A2975 RMK AO2 T00890078
0229722247547852015010418537+40624-074669FM-15+0030KSMQ V0202105N00155002135MN0096565N5+00895+00835100755ADDAA101000095AU100001015AW1105GA1085+002135999GD14991+0021359GE19MSL   +99999+99999GF199999999999002131999999MA1100755100395REMMET09501/04/15 13:53:02 METAR KSMQ 041853Z 21003KT 6SM BR OVC007 09/08 A2975 RMK AO2 SLP075 T00890083
0223722247547852015010419387+40624-074669FM-16+0030KSMQ V0209999C00005003055MN0080475N5+00945+00835999999ADDAU100001015AW1105GA1085+003055999GD14991+0030551GE19MSL   +99999+99999GF199999999999003051999999MA1100645100295REMMET10001/04/15 14:38:02 SPECI KSMQ 041938Z 00000KT 5SM BR OVC010 09/08 A2972 RMK AO2 CIG 007V013 T00940083
0229722247547852015010419537+40624-074669FM-15+0030KSMQ V0209999C00005003055MN0080475N5+01005+00835100675ADDAA101000095AU100001015AW1105GA1075+003055999GD13991+0030559GE19MSL   +99999+99999GF199999999999003051999999MA1100685100325REMMET09501/04/15 14:53:02 METAR KSMQ 041953Z 00000KT 5SM BR BKN010 10/08 A2973 RMK AO2 SLP067 T01000083
0230722247547852015010420077+40624-074669FM-16+0030KSMQ V0209999V001552200059N0096565N5+01005+00895999999ADDAU100001015AW1105GA1025+003355999GD11991+0033559GE19AGL   +99999+99999GF102995999999003351999999MA1100645100295REMMET08801/04/15 15:07:02 SPECI KSMQ 042007Z VRB03KT 6SM BR FEW011 10/09 A2972 RMK AO2 T01000089EQDD01      0ADE726
0224722247547852015010420537+40624-074669FM-15+0030KSMQ V0209999N999992200059N0048285N5+00945+00785100615ADDAA101000095AU100001015AW1105GA1005+999999999GD10991+9999999GF100991999999999999999999MA1100615100255MD1690224+9999REMMET09801/04/15 15:53:02 METAR KSMQ 042053Z      KT 3SM BR CLR 09/08 A2971 RMK AO2 SLP061 T00940078 56022
0190722247547852015010421067+40624-074669FM-16+0030KSMQ V0209999C000052200059N0024145N5+00895+00785999999ADDAU100001015AW1105GA1005+999999999GD10991+9999999GF100991999999999999999999MA1100545100185REMMET08901/04/15 16:06:02 SPECI KSMQ 042106Z 00000KT 1 1/2SM BR CLR 09/08 A2969 RMK AO2 T00890078
0219722247547852015010421097+40624-074669FM-16+0030KSMQ V0201105N00155001225WN0008055N5+00835+00785999999ADDAU100002015AW1305GA1095+001225999GD15991+0012259GE19MSL   +99999+99999GF109991999999001221999999MA1100515100155REMMET09601/04/15 16:09:02 SPECI KSMQ 042109Z 11003KT 1/2SM FG VV004 08/08 A2968 RMK AO2 PRESFR T00830078
0212722247547852015010421177+40624-074669FM-16+0030KSMQ V0209999N99999001225WN0004025N5+00835+00675999999ADDAU100002015AW1305GA1095+001225999GD15991+0012259GE19MSL   +99999+99999GF109991999999001221999999MA1100515100155REMMET08901/04/15 16:17:02 SPECI KSMQ 042117Z      KT 1/4SM FG VV004 08/07 A2968 RMK AO2 T00830067
0270722247547852015010421237+40624-074669FM-16+0030KSMQ V0209999C000052200059N0004025N5+00835+00725999999ADDAU100002015AW1305GA1045+001525999GA2045+025915999GD12991+0015259GD22991+0259159GE19AGL   +99999+99999GF104995999999001521999999MA1100515100155REMMET09701/04/15 16:23:02 SPECI KSMQ 042123Z 00000KT 1/4SM FG SCT005 SCT085 08/07 A2968 RMK AO2 T00830072EQDD01      0ADE726
0251722247547852015010421407+40624-074669FM-16+0030KSMQ V0209999C00005001525MN0004025N5+00785+00725999999ADDAU100002015AW1305GA1075+001525999GA2075+025915999GD13991+0015259GD23991+0259159GE19MSL   +99999+99999GF199999999999001521999999MA1100515100155REMMET09701/04/15 16:40:02 SPECI KSMQ 042140Z 00000KT 1/4SM FG BKN005 BKN085 08/07 A2968 RMK AO2 T00780072
0241722247547852015010421497+40624-074669FM-16+0030KSMQ V0209999C00005001525MN0008055N5+00805+00705999999ADDAU100002015AW1305GA1075+001525999GA2075+025915999GD13991+0015259GD23991+0259159GE19MSL   +99999+99999GF199999999999001521999999MA1100515100155REMMET08701/04/15 16:49:02 SPECI KSMQ 042149Z 00000KT 1/2SM FG BKN005 BKN085 08/07 A2968 RMK AO2
0269722247547852015010421537+40624-074669FM-15+0030KSMQ V0209999C00005001525MN0008055N5+00725+00675100505ADDAA101000095AU100002015AW1305GA1075+001525999GA2075+024385999GD13991+0015259GD23991+0243859GE19MSL   +99999+99999GF199999999999001521999999MA1100475100125REMMET10401/04/15 16:53:02 METAR KSMQ 042153Z 00000KT 1/2SM FG BKN005 BKN080 07/07 A2967 RMK AO2 SLP050 T00720067
0212722247547852015010422107+40624-074669FM-16+0030KSMQ V0209999C00005001225WN0008055N5+00725+00675999999ADDAU100002015AW1305GA1095+001225999GD15991+0012259GE19MSL   +99999+99999GF109991999999001221999999MA1100445100085REMMET08901/04/15 17:10:02 SPECI KSMQ 042210Z 00000KT 1/2SM FG VV004 07/07 A2966 RMK AO2 T00720067
0212722247547852015010422417+40624-074669FM-16+0030KSMQ V0202905N00155000915WN0004025N5+00675+00565999999ADDAU100002015AW1305GA1095+000915999GD15991+0009159GE19MSL   +99999+99999GF109991999999000911999999MA1100475100125REMMET08901/04/15 17:41:02 SPECI KSMQ 042241Z 29003KT 1/4SM FG VV003 07/06 A2967 RMK AO2 T00670056
0230722247547852015010422537+40624-074669FM-15+0030KSMQ V0203205N00155000915WN0004025N5+00675+00565100515ADDAA101000095AU100002015AW1305GA1095+000915999GD15991+0009159GE19MSL   +99999+99999GF109991999999000911999999MA1100515100155REMMET09601/04/15 17:53:02 METAR KSMQ 042253Z 32003KT 1/4SM FG VV003 07/06 A2968 RMK AO2 SLP051 T00670056
0251722247547852015010423067+40624-074669FM-16+0030KSMQ V0203305N00155007625MN0008055N5+00675+00565999999ADDAU100002015AW1305GA1045+000915999GA2085+007625999GD12991+0009159GD24991+0076259GE19MSL   +99999+99999GF199999999999000911999999MA1100515100155REMMET09701/04/15 18:06:02 SPECI KSMQ 042306Z 33003KT 1/2SM FG SCT003 OVC025 07/06 A2968 RMK AO2 T00670056
0253722247547852015010423237+40624-074669FM-16+0030KSMQ V0209999C00005007015MN0024145N5+00725+00615999999ADDAU100001015AW1105GA1025+000915999GA2085+007015999GD11991+0009159GD24991+0070159GE19MSL   +99999+99999GF199999999999000911999999MA1100545100185REMMET09901/04/15 18:23:02 SPECI KSMQ 042323Z 00000KT 1 1/2SM BR FEW003 OVC023 07/06 A2969 RMK AO2 T00720061
0253722247547852015010423317+40624-074669FM-16+0030KSMQ V0209999C00005007015MN0040235N5+00725+00675999999ADDAU100001015AW1105GA1025+000915999GA2085+007015999GD11991+0009159GD24991+0070159GE19MSL   +99999+99999GF199999999999000911999999MA1100545100185REMMET09901/04/15 18:31:02 SPECI KSMQ 042331Z 00000KT 2 1/2SM BR FEW003 OVC023 07/07 A2969 RMK AO2 T00720067
0234722247547852015010423516+40624-074669FM-16+0030KSMQ V0209999C00005007925MN0064375N5+00705+00605999999ADDAU100001015AW1105GA1025+006105999GA2075+007925999GA3085+010975999GD11991+0061059GD23991+0079259GD34991+0109759MA1100515100155REMMET09701/04/15 18:51:02 SPECI KSMQ 042351Z 00000KT 4SM BR FEW020 BKN026 OVC036 07/06 A2968 RMK AO2 FIBI
0363722247547852015010423537+40624-074669FM-15+0030KSMQ V0209999C00005007925MN0080475N5+00785+00675100515ADDAA101000095AU100001015AW1105GA1025+006105999GA2075+007925999GA3085+010975999GD11991+0061059GD23991+0079259GD34991+0109759GE19MSL   +99999+99999GF199999999999006101999999KA1060M+01001KA2060N+00671MA1100515100155MD1590004+9999REMMET12701/04/15 18:53:02 METAR KSMQ 042353Z 00000KT 5SM BR FEW020 BKN026 OVC036 08/07 A2968 RMK AO2 SLP051 T00780067 10100 20067 55000
0229722247547852015010500287+40624-074669FM-16+0030KSMQ V0209999V00155010975MN0128755N5+00945+00835999999ADDGA1045+006405999GA2085+010975999GD12991+0064059GD24991+0109759GE19MSL   +99999+99999GF199999999999006401999999MA1100545100185REMMET09201/04/15 19:28:01 SPECI KSMQ 050028Z VRB03KT 8SM SCT021 OVC036 09/08 A2969 RMK AO2 T00940083
0242722247547852015010500537+40624-074669FM-15+0030KSMQ V0209999C00005011285MN0112655N5+00945+00835100575ADDAA101000395AU110020015AW1615GA1085+011285999GD14991+0112859GE19MSL   +99999+99999GF199999999999011281999999MA1100585100225REMMET10801/04/15 19:53:01 METAR KSMQ 050053Z 00000KT 7SM -RA OVC037 09/08 A2970 RMK AO2 RAB49 SLP057 P0000 T00940083
0327722247547852015010501537+40624-074669FM-15+0030KSMQ V0202905V00415021345MN0160935N5+01065+00725100695ADDAA101000025AU110020015AW1615GA1045+018295999GA2085+021345999GD12991+0182959GD24991+0213459GE19MSL   +99999+99999GF199999999999018291999999MA1100685100325OC100825OD149901331270REMMET14001/04/15 20:53:01 METAR KSMQ 050153Z 29008G16KT 10SM -RA SCT060 OVC070 11/07 A2973 RMK AO2 PK WND 27026/0129 RAE12B31 SLP069 P0001 T01060072
0289722247547852015010502537+40624-074669FM-15+0030KSMQ V0202905N00465030485MN0160935N5+01065+00615100785ADDAA101000395AA203000591GA1085+030485999GD14991+0304859GE19MSL   +99999+99999GF199999999999030481999999MA1100785100425MD1390274+9999OC100885REMMET12001/04/15 21:53:02 METAR KSMQ 050253Z 29009G17KT 10SM OVC100 11/06 A2976 RMK AO2 RAE40 SLP078 P0001 60002 T01060061 53027EQDQ01  00058PRCP03
0221722247547852015010503537+40624-074669FM-15+0030KSMQ V0202805V00575033535MN0160935N5+01005+00115100855ADDAA101000095GA1085+033535999GD14991+0335359GE19MSL   +99999+99999GF199999999999033531999999MA1100855100495OC101245REMMET09601/04/15 22:53:02 METAR KSMQ 050353Z 28011G24KT 10SM OVC110 10/01 A2978 RMK AO2 SLP085 T01000011
0265722247547852015010504537+40624-074669FM-15+0030KSMQ V0202905V006752200059N0160935N5+00895-00175100975ADDAA101000095GA1005+999999999GD10991+9999999GF100991999999999999999999KA1240M+01171KA2240N+00221MA1100955100595OC101185OD149901541300REMMET12201/04/15 23:53:02 METAR KSMQ 050453Z 29013G23KT 10SM CLR 09/M02 A2981 RMK AO2 PK WND 30030/0434 SLP097 T00891017 401170022
0886722247547852015010504596+40624-074669SOD  +0030KSMQ V020999999999999999999999999999+99999+99999999999ADDAA124004695KA1240M+01175KA2240N+00225MG1100734100444OE11240156530023345OE22240093930023355OE33240017999999995REMSOD73024 HR PRECIPITATION (IN):0.18  24 HR MAX TEMP (F):53 24 HR MAX TEMP TIME (LST):2035 24 HR MIN TEMP (F):36 24 HR MIN TEMP TIME (LST):0402 AVERAGE STATION PRESSURE:29.745 MINIMUM SEA LEVEL PRESSURE:29.66 TIME OF OCCURRENCE:1739 PEAK WIND SPEED (MPH):35  PEAK WIND DIR (DEG):300 PEAK WIND TIME (LST):2334  FASTEST 2MIN SPEED (MPH):21 FASTEST 2MIN DIR (DEG):300 FASTEST 2MIN TIME (LST):2335 AVERAGE WIND SPEED (MPH):4.0  24 HR AVG TEMP (F):45 HEATING DEGREE DAYS:20  COOLING DEGREE DAYS:0   LATEST DAY MAX TEMP (0700-1900 LST):50  LATEST NIGHT MIN TEMP(1900-0800 LST):36 HOURLY INCREMENTAL PRECIPITATION VALUES (IN):.04 0.02 0.00 0.00 0.00 0.01 0.07 T    0.02 T    0.00 0.00 0.00 0.00 0.00 0.00 0.00 0.00 0.00 0.01 T    0.01 0.00 0.00EQDR01     N7GJS072R02     N7GKS075
0272722247547852015010505537+40624-074669FM-15+0030KSMQ V0202805V005752200059N0160935N5+00785-00225101025ADDAA101000095AA206000591GA1005+999999999GD10991+9999999GF100991999999999999999999KA1060M+01171KA2060N+00721MA1101025100665MD1190244+9999OC101185REMMET11801/05/15 00:53:02 METAR KSMQ 050553Z 28011G23KT 10SM CLR 08/M02 A2983 RMK AO2 SLP102 60002 T00781022 10117 20072 51024
0197722247547852015010506537+40624-074669FM-15+0030KSMQ V0202905N005152200059N0160935N5+00675-00335101155ADDAA101000095GA1005+999999999GD10991+9999999GF100991999999999999999999MA1101155100795OC101085REMMET09401/05/15 01:53:02 METAR KSMQ 050653Z 29010G21KT 10SM CLR 07/M03 A2987 RMK AO2 SLP115 T00671033
0197722247547852015010507537+40624-074669FM-15+0030KSMQ V0202905N004652200059N0160935N5+00565-00335101225ADDAA101000095GA1005+999999999GD10991+9999999GF100991999999999999999999MA1101225100865OC101185REMMET09401/05/15 02:53:02 METAR KSMQ 050753Z 29009G23KT 10SM CLR 06/M03 A2989 RMK AO2 SLP122 T00561033
0206722247547852015010508537+40624-074669FM-15+0030KSMQ V0202705V004152200059N0160935N5+00505-00395101285ADDAA101000095GA1005+999999999GD10991+9999999GF100991999999999999999999MA1101255100895MD1190254+9999REMMET09701/05/15 03:53:02 METAR KSMQ 050853Z 27008KT 10SM CLR 05/M04 A2990 RMK AO2 SLP128 T00501039 51025
0241722247547852015010509537+40624-074669FM-15+0030KSMQ V0202905N003652200059N0160935N5+00445-00445101365ADDAA101000095GA1025+015245999GD11991+0152459GE19AGL   +99999+99999GF102995999999015241999999MA1101355100995OC100825REMMET09701/05/15 04:53:02 METAR KSMQ 050953Z 29007G16KT 10SM FEW050 04/M04 A2993 RMK AO2 SLP136 T00441044EQDD01      0ADE726
0273722247547852015010510537+40624-074669FM-15+0030KSMQ V0202905N006752200059N0160935N5+00395-00615101475ADDAA101000095GA1025+016765999GD11991+0167659GE19AGL   +99999+99999GF102995999999016761999999MA1101465101105OC101445OD149901441280REMMET11501/05/15 05:53:02 METAR KSMQ 051053Z 29013G28KT 10SM FEW055 04/M06 A2996 RMK AO2 PK WND 28028/1051 SLP147 T00391061EQDD01      0ADE726
0290722247547852015010511537+40624-074669FM-15+0030KSMQ V0202905N005752200059N0160935N5+00335-00725101635ADDAA101000095AA224001391GA1005+999999999GD10991+9999999GF100991999999999999999999KA1060M+00781KA2060N+00331MA1101635101265MD1390354+9999OC101035REMMET13601/05/15 06:53:02 METAR KSMQ 051153Z 29011G20KT 10SM CLR 03/M07 A3001 RMK AO2 PK WND 31027/1105 SLP163 70005 T00331072 10078 20033 53035
0241722247547852015010512537+40624-074669FM-15+0030KSMQ V0202905V004652200059N0160935N5+00285-00835101875ADDAA101000095GA1045+018295999GD12991+0182959GE19AGL   +99999+99999GF104995999999018291999999MA1101865101505OC101185REMMET09701/05/15 07:53:02 METAR KSMQ 051253Z 29009G23KT 10SM SCT060 03/M08 A3008 RMK AO2 SLP187 T00281083EQDD01      0ADE726
0229722247547852015010513537+40624-074669FM-15+0030KSMQ V0202905V007752200059N0160935N5+00225-01115102005ADDAA101000095GA1005+999999999GD10991+9999999GF100991999999999999999999MA1102005101645OC101445OD149901441270REMMET11201/05/15 08:53:02 METAR KSMQ 051353Z 29015G28KT 10SM CLR 02/M11 A3012 RMK AO2 PK WND 27028/1351 SLP200 T00221111
0293722247547852015010514537+40624-074669FM-15+0030KSMQ V0203005N007252200059N0160935N5+00225-01175102085ADDAA101000095GA1025+018295999GD11991+0182959GE19AGL   +99999+99999GF102995999999018291999999MA1102075101705MD1190454+9999OC101395OD149901391310REMMET12101/05/15 09:53:02 METAR KSMQ 051453Z 30014G27KT 10SM FEW060 02/M12 A3014 RMK AO2 PK WND 31027/1441 SLP208 T00221117 51045EQDD01      0ADE726
0273722247547852015010515537+40624-074669FM-15+0030KSMQ V0202805V005152200059N0160935N5+00225-01335102155ADDAA101000095GA1025+021345999GD11991+0213459GE19AGL   +99999+99999GF102995999999021341999999MA1102135101775OC101035OD149901541300REMMET11501/05/15 10:53:02 METAR KSMQ 051553Z 28010G20KT 10SM FEW070 02/M13 A3016 RMK AO2 PK WND 30030/1503 SLP215 T00221133EQDD01      0ADE726
0273722247547852015010516537+40624-074669FM-15+0030KSMQ V0202905N004652200059N0160935N5+00225-01445102105ADDAA101000095GA1045+021345999GD12991+0213459GE19AGL   +99999+99999GF104995999999021341999999MA1102105101745OC101395OD149901541300REMMET11501/05/15 11:53:02 METAR KSMQ 051653Z 29009G27KT 10SM SCT070 02/M14 A3015 RMK AO2 PK WND 30030/1558 SLP210 T00221144EQDD01      0ADE726
0312722247547852015010517537+40624-074669FM-15+0030KSMQ V0202705V00365021345MN0160935N5+00225-01335102085ADDAA101000095GA1075+021345999GD13991+0213459GE19MSL   +99999+99999GF199999999999021341999999KA1060M+00331KA2060N+00111MA1102075101705MD1890014+9999OC101135OD149901331300REMMET13301/05/15 12:53:02 METAR KSMQ 051753Z 27007G22KT 10SM BKN070 02/M13 A3014 RMK AO2 PK WND 30026/1723 SLP208 T00221133 10033 20011 58001
0273722247547852015010518537+40624-074669FM-15+0030KSMQ V0202805N006252200059N0160935N5+00115-01445102185ADDAA101000095GA1025+019815999GD11991+0198159GE19AGL   +99999+99999GF102995999999019811999999MA1102175101805OC101135OD149901491330REMMET11501/05/15 13:53:02 METAR KSMQ 051853Z 28012G22KT 10SM FEW065 01/M14 A3017 RMK AO2 PK WND 33029/1833 SLP218 T00111144EQDD01      0ADE726
0222722247547852015010519537+40624-074669FM-15+0030KSMQ V0202805V00515021345MN0160935N5+00115-01505102265ADDAA101000095GA1075+021345999GD13991+0213459GE19MSL   +99999+99999GF199999999999021341999999MA1102245101875OC101085REMMET09701/05/15 14:53:02 METAR KSMQ 051953Z 28010G21KT 10SM BKN070 01/M15 A3019 RMK AO2 SLP226 T00111150
0261722247547852015010520537+40624-074669FM-15+0030KSMQ V0202905N006752200059N0160935N5+00005-01565102395ADDAA101000095GA1025+019815999GD11991+0198159GE19AGL   +99999+99999GF102995999999019811999999MA1102375102015MD1390314+9999OC101185REMMET10301/05/15 15:53:02 METAR KSMQ 052053Z 29013G23KT 10SM FEW065 00/M16 A3023 RMK AO2 SLP239 T00001156 53031EQDD01      0ADE726
0223722247547852015010521537+40624-074669FM-15+0030KSMQ V0202705V00415019815MN0160935N5-00115-01565102525ADDAA101000095GA1075+019815999GD13991+0198159GE19MSL   +99999+99999GF199999999999019811999999MA1102515102145OC100825REMMET09801/05/15 16:53:02 METAR KSMQ 052153Z 27008G16KT 10SM BKN065 M01/M16 A3027 RMK AO2 SLP252 T10111156
0198722247547852015010522537+40624-074669FM-15+0030KSMQ V0203005N004152200059N0160935N5-00225-01675102645ADDAA101000095GA1005+999999999GD10991+9999999GF100991999999999999999999MA1102615102245OC100885REMMET09501/05/15 17:53:02 METAR KSMQ 052253Z 30008G17KT 10SM CLR M02/M17 A3030 RMK AO2 SLP264 T10221167
0245722247547852015010523537+40624-074669FM-15+0030KSMQ V0209999V003152200059N0160935N5-00285-01615102835ADDAA101000095GA1005+999999999GD10991+9999999GF100991999999999999999999KA1060M+00221KA2060N-00281MA1102815102455MD1390434+9999REMMET11001/05/15 18:53:02 METAR KSMQ 052353Z VRB06KT 10SM CLR M03/M16 A3036 RMK AO2 SLP283 T10281161 10022 21028 53043
0187722247547852015010600537+40624-074669FM-15+0030KSMQ V0203305N002152200059N0160935N5-00395-01725102825ADDAA101000095GA1005+999999999GD10991+9999999GF100991999999999999999999MA1102815102455REMMET09201/05/15 19:53:01 METAR KSMQ 060053Z 33004KT 10SM CLR M04/M17 A3036 RMK AO2 SLP282 T10391172
0187722247547852015010601537+40624-074669FM-15+0030KSMQ V0203205N004652200059N0160935N5-00445-01895102895ADDAA101000095GA1005+999999999GD10991+9999999GF100991999999999999999999MA1102885102515REMMET09201/05/15 20:53:02 METAR KSMQ 060153Z 32009KT 10SM CLR M04/M19 A3038 RMK AO2 SLP289 T10441189
0207722247547852015010602537+40624-074669FM-15+0030KSMQ V0203005N002152200059N0160935N5-00565-01835102935ADDAA101000095GA1005+999999999GD10991+9999999GF100991999999999999999999MA1102915102555MD1390104+9999REMMET09801/05/15 21:53:02 METAR KSMQ 060253Z 30004KT 10SM CLR M06/M18 A3039 RMK AO2 SLP293 T10561183 53010
0187722247547852015010603537+40624-074669FM-15+0030KSMQ V0203405N003152200059N0160935N5-00615-01785102945ADDAA101000095GA1005+999999999GD10991+9999999GF100991999999999999999999MA1102915102555REMMET09201/05/15 22:53:02 METAR KSMQ 060353Z 34006KT 10SM CLR M06/M18 A3039 RMK AO2 SLP294 T10611178
0223722247547852015010604537+40624-074669FM-15+0030KSMQ V0203305N002652200059N0160935N5-00675-01725103005ADDAA101000095GA1005+999999999GD10991+9999999GF100991999999999999999999KA1240M+00891KA2240N-00671MA1102985102625REMMET10201/05/15 23:53:02 METAR KSMQ 060453Z 33005KT 10SM CLR M07/M17 A3041 RMK AO2 SLP300 T10671172 400891067
0886722247547852015010604596+40624-074669SOD  +0030KSMQ V020999999999999999999999999999+99999+99999999999ADDAA124000095KA1240M+00895KA2240N-00665MG1101494100984OE11240156530010585OE22240107331011045OE33240046599999995REMSOD73024 HR PRECIPITATION (IN):0.00  24 HR MAX TEMP (F):48 24 HR MAX TEMP TIME (LST):0006 24 HR MIN TEMP (F):20 24 HR MIN TEMP TIME (LST):2359 AVERAGE STATION PRESSURE:29.970 MINIMUM SEA LEVEL PRESSURE:29.82 TIME OF OCCURRENCE:0036 PEAK WIND SPEED (MPH):35  PEAK WIND DIR (DEG):300 PEAK WIND TIME (LST):1058  FASTEST 2MIN SPEED (MPH):24 FASTEST 2MIN DIR (DEG):310 FASTEST 2MIN TIME (LST):1104 AVERAGE WIND SPEED (MPH):10.4 24 HR AVG TEMP (F):34 HEATING DEGREE DAYS:31  COOLING DEGREE DAYS:0   LATEST DAY MAX TEMP (0700-1900 LST):38  LATEST NIGHT MIN TEMP(1900-0800 LST):37 HOURLY INCREMENTAL PRECIPITATION VALUES (IN):.00 0.00 0.00 0.00 0.00 0.00 0.00 0.00 0.00 0.00 0.00 0.00 0.00 0.00 0.00 0.00 0.00 0.00 0.00 0.00 0.00 0.00 0.00 0.00EQDR01     N7GJS072R02     N7GKS075
0245722247547852015010605537+40624-074669FM-15+0030KSMQ V0203105N001552200059N0160935N5-00725-01725103025ADDAA101000095GA1005+999999999GD10991+9999999GF100991999999999999999999KA1060M-00281KA2060N-00721MA1103015102655MD1390104+9999REMMET11001/06/15 00:53:02 METAR KSMQ 060553Z 31003KT 10SM CLR M07/M17 A3042 RMK AO2 SLP302 T10721172 11028 21072 53010
0187722247547852015010606537+40624-074669FM-15+0030KSMQ V0203105N002652200059N0160935N5-00785-01725102995ADDAA101000095GA1005+999999999GD10991+9999999GF100991999999999999999999MA1102985102625REMMET09201/06/15 01:53:02 METAR KSMQ 060653Z 31005KT 10SM CLR M08/M17 A3041 RMK AO2 SLP299 T10781172
0187722247547852015010607537+40624-074669FM-15+0030KSMQ V0209999C000052200059N0160935N5-00835-01505102965ADDAA101000095GA1005+999999999GD10991+9999999GF100991999999999999999999MA1102955102585REMMET09201/06/15 02:53:02 METAR KSMQ 060753Z 00000KT 10SM CLR M08/M15 A3040 RMK AO2 SLP296 T10831150
0207722247547852015010608537+40624-074669FM-15+0030KSMQ V0209999C000052200059N0160935N5-00725-01565102905ADDAA101000095GA1005+999999999GD10991+9999999GF100991999999999999999999MA1102885102515MD1890124+9999REMMET09801/06/15 03:53:02 METAR KSMQ 060853Z 00000KT 10SM CLR M07/M16 A3038 RMK AO2 SLP290 T10721156 58012
0194722247547852015010609537+40624-074669FM-15+0030KSMQ V0202805N001552200059N0160935N5-00725-01675102835ADDAA101000095GA1005+999999999GD10991+9999999GF100991999999999999999999MA1102815102455REMMET09901/06/15 04:53:02 METAR KSMQ 060953Z 28003KT 10SM CLR M07/M17 A3036 RMK AO2 PRESFR SLP283 T10721167
0219722247547852015010610537+40624-074669FM-15+0030KSMQ V0209999V00215030485MN0160935N5-00725-01675102935ADDAA101000095GA1085+030485999GD14991+0304859GE19MSL   +99999+99999GF199999999999030481999999MA1102915102555REMMET10201/06/15 05:53:02 METAR KSMQ 061053Z VRB04KT 10SM OVC100 M07/M17 A3039 RMK AO2 PRESRR SLP293 T10721167
0270722247547852015010611537+40624-074669FM-15+0030KSMQ V0202505N00155014025MN0160935N5-00675-01615102865ADDAA101000095GA1085+014025999GD14991+0140259GE19MSL   +99999+99999GF199999999999014021999999KA1060M-00671KA2060N-00831MA1102845102485MD1890054+9999REMMET11301/06/15 06:53:02 METAR KSMQ 061153Z 25003KT 10SM OVC046 M07/M16 A3037 RMK AO2 SLP286 T10671161 11067 21083 58005
0241722247547852015010612357+40624-074669FM-16+0030KSMQ V0209999C00005009455MN0040235N5-00835-01225999999ADDAA101000021AU110030015AW1715GA1085+009455999GD14991+0094559GE19MSL   +99999+99999GF199999999999009451999999MA1102745102385REMMET10701/06/15 07:35:02 SPECI KSMQ 061235Z 00000KT 2 1/2SM -SN OVC031 M08/M12 A3034 RMK AO2 SNB01 P0000 T10831122
0231722247547852015010612507+40624-074669FM-16+0030KSMQ V0209999C00005008845MN0024145N5-00805-01205999999ADDAA101000021AU110030015AW1715GA1085+008845999GD14991+0088459GE19MSL   +99999+99999GF199999999999008841999999MA1102715102355REMMET09701/06/15 07:50:02 SPECI KSMQ 061250Z 00000KT 1 1/2SM -SN OVC029 M08/M12 A3033 RMK AO2 SNB01 P0000
0248722247547852015010612537+40624-074669FM-15+0030KSMQ V0209999C00005008845MN0020125N5-00835-01175102755ADDAA101000025AU110030015AW1715GA1085+008845999GD14991+0088459GE19MSL   +99999+99999GF199999999999008841999999MA1102715102355REMMET11401/06/15 07:53:02 METAR KSMQ 061253Z 00000KT 1 1/4SM -SN OVC029 M08/M12 A3033 RMK AO2 SNB01 SLP275 P0000 T10831117
0233722247547852015010613077+40624-074669FM-16+0030KSMQ V0209999C00005007015MN0012075N5-00835-01175999999ADDAA101000021AU110030015AW1715GA1085+007015999GD14991+0070159GE19MSL   +99999+99999GF199999999999007011999999MA1102715102355REMMET09901/06/15 08:07:02 SPECI KSMQ 061307Z 00000KT 3/4SM -SN OVC023 M08/M12 A3033 RMK AO2 P0000 T10831117
0239722247547852015010613537+40624-074669FM-15+0030KSMQ V0209999C00005005795WN0012075N5-00835-01115102815ADDAA101000025AU110030015AW1715GA1095+005795999GD15991+0057959GE19MSL   +99999+99999GF109991999999005791999999MA1102785102415REMMET10501/06/15 08:53:02 METAR KSMQ 061353Z 00000KT 3/4SM -SN VV019 M08/M11 A3035 RMK AO2 SLP281 P0000 T10831111
0230722247547852015010614067+40624-074669FM-16+0030KSMQ V0209999C00005005795WN0016095N5-00835-01115999999ADDAA101000021AU110030015AW1715GA1095+005795999GD15991+0057959GE19MSL   +99999+99999GF109991999999005791999999MA1102745102385REMMET09601/06/15 09:06:02 SPECI KSMQ 061406Z 00000KT 1SM -SN VV019 M08/M11 A3034 RMK AO2 P0000 T10831111
0232722247547852015010614137+40624-074669FM-16+0030KSMQ V0201505N00155005795WN0012075N5-00785-01065999999ADDAA101000021AU110030015AW1715GA1095+005795999GD15991+0057959GE19MSL   +99999+99999GF109991999999005791999999MA1102745102385REMMET09801/06/15 09:13:02 SPECI KSMQ 061413Z 15003KT 3/4SM -SN VV019 M08/M11 A3034 RMK AO2 P0000 T10781106
0269722247547852015010614297+40624-074669FM-16+0030KSMQ V0209999C00005006105MN0016095N5-00785-01065999999ADDAA101000021AU110030015AW1715GA1025+003355999GA2085+006105999GD11991+0033559GD24991+0061059GE19MSL   +99999+99999GF199999999999003351999999MA1102745102385REMMET10401/06/15 09:29:02 SPECI KSMQ 061429Z 00000KT 1SM -SN FEW011 OVC020 M08/M11 A3034 RMK AO2 P0000 T10781106
0247722247547852015010614516+40624-074669FM-16+0030KSMQ V0209999C00005009145MN0028165N5-00805-01105999999ADDAU110030015AW1715GA1025+003665999GA2075+009145999GA3085+012805999GD11991+0036659GD23991+0091459GD34991+0128059MA1102645102285REMMET11001/06/15 09:51:02 SPECI KSMQ 061451Z 00000KT 1 3/4SM -SN FEW012 BKN030 OVC042 M08/M11 A3031 RMK AO2 P0000 FIBI
0374722247547852015010614537+40624-074669FM-15+0030KSMQ V0209999C00005009145MN0024145N5-00785-01065102695ADDAA101000025AA203000021AU110030015AW1715GA1025+003665999GA2075+009145999GA3085+012805999GD11991+0036659GD23991+0091459GD34991+0128059GE19MSL   +99999+99999GF199999999999003661999999MA1102645102285MD1890174+9999REMMET13401/06/15 09:53:02 METAR KSMQ 061453Z 00000KT 1 1/2SM -SN FEW012 BKN030 OVC042 M08/M11 A3031 RMK AO2 SLP269 P0000 60000 T10781106 58017EQDQ01  00008PRCP03
0307722247547852015010615357+40624-074669FM-16+0030KSMQ V0201905N00365003965MN0032195N5-00725-01065999999ADDAA101000021AU110030015AW1715GA1075+003965999GA2075+011285999GA3085+013725999GD13991+0039659GD23991+0112859GD34991+0137259GE19MSL   +99999+99999GF199999999999003961999999MA1102575102215REMMET11101/06/15 10:35:02 SPECI KSMQ 061535Z 19007KT 2SM -SN BKN013 BKN037 OVC045 M07/M11 A3029 RMK AO2 P0000 T10721106
0307722247547852015010615457+40624-074669FM-16+0030KSMQ V0201905N00265008845MN0032195N5-00725-01115999999ADDAA101000021AU110030015AW1715GA1045+004575999GA2075+008845999GA3085+012805999GD12991+0045759GD23991+0088459GD34991+0128059GE19MSL   +99999+99999GF199999999999004571999999MA1102575102215REMMET11101/06/15 10:45:02 SPECI KSMQ 061545Z 19005KT 2SM -SN SCT015 BKN029 OVC042 M07/M11 A3029 RMK AO2 P0000 T10721111
0247722247547852015010615516+40624-074669FM-16+0030KSMQ V0201805N00265008845MN0028165N5-00705-01105999999ADDAU110030015AW1715GA1045+004575999GA2075+008845999GA3085+010365999GD12991+0045759GD23991+0088459GD34991+0103659MA1102575102215REMMET11001/06/15 10:51:02 SPECI KSMQ 061551Z 18005KT 1 3/4SM -SN SCT015 BKN029 OVC034 M07/M11 A3029 RMK AO2 P0000 FIBI
0280722247547852015010615537+40624-074669FM-15+0030KSMQ V0202105N00315008845MN0024145N5-00725-01065102605ADDAA101000025AU110030015AW1715GA1045+004575999GA2085+008845999GD12991+0045759GD24991+0088459GE19MSL   +99999+99999GF199999999999004571999999MA1102575102215REMMET11501/06/15 10:53:02 METAR KSMQ 061553Z 21006KT 1 1/2SM -SN SCT015 OVC029 M07/M11 A3029 RMK AO2 SLP260 P0000 T10721106
0287722247547852015010616537+40624-074669FM-15+0030KSMQ V0201605N00155007325MN0020125N5-00675-01005102395ADDAA101000025AU110030015AW1715GA1075+007325999GA2085+010365999GD13991+0073259GD24991+0103659GE19MSL   +99999+99999GF199999999999007321999999MA1102375102015REMMET12201/06/15 11:53:02 METAR KSMQ 061653Z 16003KT 1 1/4SM -SN BKN024 OVC034 M07/M10 A3023 RMK AO2 PRESFR SLP239 P0000 T10671100
0314722247547852015010617087+40624-074669FM-16+0030KSMQ V0209999C00005009145MN0032195N5-00675-01005999999ADDAA101000021AU110030015AW1715GA1025+004885999GA2075+009145999GA3085+012505999GD11991+0048859GD23991+0091459GD34991+0125059GE19MSL   +99999+99999GF199999999999004881999999MA1102305101945REMMET11801/06/15 12:08:02 SPECI KSMQ 061708Z 00000KT 2SM -SN FEW016 BKN030 OVC041 M07/M10 A3021 RMK AO2 PRESFR P0000 T10671100
0311722247547852015010617227+40624-074669FM-16+0030KSMQ V0209999C00005005495MN0028165N5-00675-01005999999ADDAA101000021AU110030015AW1715GA1075+005495999GA2075+010675999GA3085+012505999GD13991+0054959GD23991+0106759GD34991+0125059GE19MSL   +99999+99999GF199999999999005491999999MA1102275101915REMMET11501/06/15 12:22:02 SPECI KSMQ 061722Z 00000KT 1 3/4SM -SN BKN018 BKN035 OVC041 M07/M10 A3020 RMK AO2 P0000 T10671100
0307722247547852015010617307+40624-074669FM-16+0030KSMQ V0201605N00215006105MN0032195N5-00675-01005999999ADDAA101000021AU110030015AW1715GA1045+004575999GA2075+006105999GA3085+012195999GD12991+0045759GD23991+0061059GD34991+0121959GE19MSL   +99999+99999GF199999999999004571999999MA1102245101875REMMET11101/06/15 12:30:02 SPECI KSMQ 061730Z 16004KT 2SM -SN SCT015 BKN020 OVC040 M07/M10 A3019 RMK AO2 P0000 T10671100
0297722247547852015010617507+40624-074669FM-16+0030KSMQ V0209999V00155011285MN0048285N5-00705-01105999999ADDAA101000021AU110030015AW1715GA1045+005185999GA2045+007015999GA3085+011285999GD12991+0051859GD22991+0070159GD34991+0112859GE19MSL   +99999+99999GF199999999999005181999999MA1102205101845REMMET10101/06/15 12:50:02 SPECI KSMQ 061750Z VRB03KT 3SM -SN SCT017 SCT023 OVC037 M07/M11 A3018 RMK AO2 P0000
0408722247547852015010617537+40624-074669FM-15+0030KSMQ V0209999C00005011285MN0048285N5-00615-01065102215ADDAA101000025AA206000021AU110030015AW1715GA1045+005185999GA2045+007015999GA3085+011285999GD12991+0051859GD22991+0070159GD34991+0112859GE19MSL   +99999+99999GF199999999999005181999999KA1060M-00611KA2060N-00831MA1102175101805MD1690394+9999REMMET14201/06/15 12:53:02 METAR KSMQ 061753Z 00000KT 3SM -SN SCT017 SCT023 OVC037 M06/M11 A3017 RMK AO2 SLP221 P0000 60000 T10611106 11061 21083 56039EQDQ01  00008PRCP06
0314722247547852015010618537+40624-074669FM-15+0030KSMQ V0209999C00005014025MN0064375N5-00615-01065102095ADDAA101000025AU110030015AW1715GA1025+005795999GA2075+014025999GA3085+016765999GD11991+0057959GD23991+0140259GD34991+0167659GE19MSL   +99999+99999GF199999999999005791999999MA1102075101705REMMET11801/06/15 13:53:02 METAR KSMQ 061853Z 00000KT 4SM -SN FEW019 BKN046 OVC055 M06/M11 A3014 RMK AO2 SLP209 P0000 T10611106
0273722247547852015010619107+40624-074669FM-16+0030KSMQ V0209999C00005006715MN0040235N5-00615-01005999999ADDAA101000021AU110030015AW1715GA1075+006715999GA2085+014025999GD13991+0067159GD24991+0140259GE19MSL   +99999+99999GF199999999999006711999999MA1102035101675REMMET10801/06/15 14:10:02 SPECI KSMQ 061910Z 00000KT 2 1/2SM -SN BKN022 OVC046 M06/M10 A3013 RMK AO2 P0000 T10611100
0307722247547852015010619267+40624-074669FM-16+0030KSMQ V0209999C00005011285MN0048285N5-00615-01005999999ADDAA101000021AU110030015AW1715GA1045+006715999GA2075+011285999GA3085+014335999GD12991+0067159GD23991+0112859GD34991+0143359GE19MSL   +99999+99999GF199999999999006711999999MA1102005101645REMMET11101/06/15 14:26:02 SPECI KSMQ 061926Z 00000KT 3SM -SN SCT022 BKN037 OVC047 M06/M10 A3012 RMK AO2 P0000 T10611100
0287722247547852015010619537+40624-074669FM-15+0030KSMQ V0209999C00005012805MN0096565N5-00615-01005102045ADDAA101000025AU100007015AW1051GA1045+007325999GA2085+012805999GD12991+0073259GD24991+0128059GE19MSL   +99999+99999GF199999999999007321999999MA1102005101645MW1055REMMET11601/06/15 14:53:02 METAR KSMQ 061953Z 00000KT 6SM HZ SCT024 OVC042 M06/M10 A3012 RMK AO2 SNE33 SLP204 P0000 T10611100
0295722247547852015010620167+40624-074669FM-16+0030KSMQ V0209999V00215007925MN0080475N5-00615-01065999999ADDAU100007015AW1051GA1045+006405999GA2075+007925999GA3085+015245999GD12991+0064059GD23991+0079259GD34991+0152459GE19MSL   +99999+99999GF199999999999006401999999MA1102035101675MW1055REMMET10401/06/15 15:16:02 SPECI KSMQ 062016Z VRB04KT 5SM HZ SCT021 BKN026 OVC050 M06/M11 A3013 RMK AO2 T10611106
0295722247547852015010620287+40624-074669FM-16+0030KSMQ V0202005N00155011895MN0064375N5-00615-01005999999ADDAU100007015AW1051GA1045+006105999GA2075+011895999GA3085+015245999GD12991+0061059GD23991+0118959GD34991+0152459GE19MSL   +99999+99999GF199999999999006101999999MA1102005101645MW1055REMMET10401/06/15 15:28:02 SPECI KSMQ 062028Z 20003KT 4SM HZ SCT020 BKN039 OVC050 M06/M10 A3012 RMK AO2 T10611100
0269722247547852015010620487+40624-074669FM-16+0030KSMQ V0209999C00005010975MN0040235N5-00605-01005999999ADDAA101000021AU110030015AW1715GA1025+006105999GA2085+010975999GD11991+0061059GD24991+0109759GE19MSL   +99999+99999GF199999999999006101999999MA1102005101645REMMET10401/06/15 15:48:02 SPECI KSMQ 062048Z 00000KT 2 1/2SM -SN FEW020 OVC036 M06/M10 A3012 RMK AO2 SNB31 P0000
0376722247547852015010620537+40624-074669FM-15+0030KSMQ V0209999C00005010365MN0032195N5-00615-01005102035ADDAA101000025AA203000021AU110030015AW1715GA1025+006105999GA2075+010365999GA3085+013415999GD11991+0061059GD23991+0103659GD34991+0134159GE19MSL   +99999+99999GF199999999999006101999999MA1102005101645MD1690054+9999REMMET13601/06/15 15:53:02 METAR KSMQ 062053Z 00000KT 2SM -SN FEW020 BKN034 OVC044 M06/M10 A3012 RMK AO2 SNB31 SLP203 P0000 60000 T10611100 56005EQDQ01  00008PRCP03
0235722247547852015010621207+40624-074669FM-16+0030KSMQ V0209999N99999009755MN0028165N5-00615-00945999999ADDAA101000021AU110030015AW1715GA1085+009755999GD14991+0097559GE19MSL   +99999+99999GF199999999999009751999999MA1102005101645REMMET10101/06/15 16:20:02 SPECI KSMQ 062120Z      KT 1 3/4SM -SN OVC032 M06/M09 A3012 RMK AO2 P0000 T10611094
0235722247547852015010621387+40624-074669FM-16+0030KSMQ V0209999C00005010065MN0040235N5-00615-00945999999ADDAA101000021AU110030015AW1715GA1085+010065999GD14991+0100659GE19MSL   +99999+99999GF199999999999010061999999MA1101965101605REMMET10101/06/15 16:38:02 SPECI KSMQ 062138Z 00000KT 2 1/2SM -SN OVC033 M06/M09 A3011 RMK AO2 P0000 T10611094
0242722247547852015010621537+40624-074669FM-15+0030KSMQ V0209999C00005008845MN0040235N5-00675-00945101985ADDAA101000025AU110030015AW1715GA1085+008845999GD14991+0088459GE19MSL   +99999+99999GF199999999999008841999999MA1101965101605REMMET10801/06/15 16:53:02 METAR KSMQ 062153Z 00000KT 2 1/2SM -SN OVC029 M07/M09 A3011 RMK AO2 SLP198 P0000 T10671094
0251722247547852015010622067+40624-074669FM-16+0030KSMQ V0209999C00005007625MN0064375N5-00785-01005999999ADDAA101000021AU110030015AU200001015AW1105AW2715GA1085+007625999GD14991+0076259GE19MSL   +99999+99999GF199999999999007621999999MA1101935101575REMMET10001/06/15 17:06:02 SPECI KSMQ 062206Z 00000KT 4SM -SN BR OVC025 M08/M10 A3010 RMK AO2 P0000 T10781100
0235722247547852015010622287+40624-074669FM-16+0030KSMQ V0209999C000052200059N0144845N5-00835-01065999999ADDAA101000021GA1045+005795999GD12991+0057959GE19AGL   +99999+99999GF104995999999005791999999MA1101965101605REMMET09901/06/15 17:28:02 SPECI KSMQ 062228Z 00000KT 9SM SCT019 M08/M11 A3011 RMK AO2 SNE15 P0000 T10831106EQDD01      0ADE726
0198722247547852015010622537+40624-074669FM-15+0030KSMQ V0209999C000052200059N0128755N5-00895-01115101965ADDAA101000025GA1005+999999999GD10991+9999999GF100991999999999999999999MA1101935101575REMMET10301/06/15 17:53:02 METAR KSMQ 062253Z 00000KT 8SM CLR M09/M11 A3010 RMK AO2 SNE15 SLP196 P0000 T10891111
0365722247547852015010623537+40624-074669FM-15+0030KSMQ V0209999C00005014335MN0096565N5-01005-01225101965ADDAA101000095AA206000021AU100001015AW1105GA1025+011585999GA2075+014335999GD11991+0115859GD23991+0143359GE19MSL   +99999+99999GF199999999999011581999999KA1060M-00561KA2060N-01001MA1101935101575MD1690084+9999WA1900199REMMET14001/06/15 18:53:02 METAR KSMQ 062353Z 00000KT 6SM BR FEW038 BKN047 M10/M12 A3010 RMK AO2 SLP196 60000 I1001 I6001 T11001122 11056 21100 56008
0231722247547852015010700207+40624-074669FM-16+0030KSMQ V0209999C00005007925MN0112655N5-01065-01335999999ADDGA1075+007925999GA2085+014335999GD13991+0079259GD24991+0143359GE19MSL   +99999+99999GF199999999999007921999999MA1101935101575REMMET09401/06/15 19:20:01 SPECI KSMQ 070020Z 00000KT 7SM BKN026 OVC047 M11/M13 A3010 RMK AO2 T11061133
0265722247547852015010700397+40624-074669FM-16+0030KSMQ V0209999C000052200059N0128755N5-01115-01395999999ADDGA1045+006715999GA2045+014635999GD12991+0067159GD22991+0146359GE19AGL   +99999+99999GF104995999999006711999999MA1101935101575WA1900099REMMET10001/06/15 19:39:01 SPECI KSMQ 070039Z 00000KT 8SM SCT022 SCT048 M11/M14 A3010 RMK AO2 I1000 T11111139EQDD01      0ADE726
0201722247547852015010700537+40624-074669FM-15+0030KSMQ V0209999C000052200059N0144845N5-01115-01395101975ADDAA101000095GA1005+999999999GD10991+9999999GF100991999999999999999999MA1101935101575WA1900099REMMET09701/06/15 19:53:01 METAR KSMQ 070053Z 00000KT 9SM CLR M11/M14 A3010 RMK AO2 SLP197 I1000 T11111139
0201722247547852015010701537+40624-074669FM-15+0030KSMQ V0209999C000052200059N0128755N5-01285-01505101925ADDAA101000095GA1005+999999999GD10991+9999999GF100991999999999999999999MA1101905101535WA1900099REMMET09701/06/15 20:53:01 METAR KSMQ 070153Z 00000KT 8SM CLR M13/M15 A3009 RMK AO2 SLP192 I1000 T11281150
0236722247547852015010702247+40624-074669FM-16+0030KSMQ V0209999C000052200059N0028165N5-01285-01505999999ADDAU100001015AW1105GA1025+004885999GD11991+0048859GE19AGL   +99999+99999GF102995999999004881999999MA1101905101535REMMET09401/06/15 21:24:01 SPECI KSMQ 070224Z 00000KT 1 3/4SM BR FEW016 M13/M15 A3009 RMK AO2 T11281150EQDD01      0ADE726
0238722247547852015010702337+40624-074669FM-16+0030KSMQ V0209999C000052200059N0048285N5-01225-01565999999ADDAU100007015AW1051GA1025+004575999GD11991+0045759GE19AGL   +99999+99999GF102995999999004571999999MA1101905101535MW1055REMMET09001/06/15 21:33:01 SPECI KSMQ 070233Z 00000KT 3SM HZ FEW015 M12/M16 A3009 RMK AO2 T11221156EQDD01      0ADE726
0227722247547852015010702537+40624-074669FM-15+0030KSMQ V0209999C000052200059N0128755N5-01285-01565101885ADDAA101000095GA1005+999999999GD10991+9999999GF100991999999999999999999MA1101865101505MD1890084+9999WA1900099REMMET10901/06/15 21:53:01 METAR KSMQ 070253Z 00000KT 8SM CLR M13/M16 A3008 RMK AO2 SLP188 I1000 I3000 T11281156 58008
0288722247547852015010703537+40624-074669FM-15+0030KSMQ V0209999C000052200059N0048285N5-01335-01565101795ADDAA101000095AU100001015AW1105GA1025+007015999GA2045+014635999GD11991+0070159GD22991+0146359GE19AGL   +99999+99999GF104995999999007011999999MA1101765101405REMMET10401/06/15 22:53:01 METAR KSMQ 070353Z 00000KT 3SM BR FEW023 SCT048 M13/M16 A3005 RMK AO2 SLP179 T11331156EQDD01      0ADE726
0222722247547852015010704537+40624-074669FM-15+0030KSMQ V0209999C000052200059N0112655N5-01445-01675101725ADDAA101000095GA1005+999999999GD10991+9999999GF100991999999999999999999KA1240M-00561KA2240N-01441MA1101695101335REMMET10101/06/15 23:53:01 METAR KSMQ 070453Z 00000KT 7SM CLR M14/M17 A3003 RMK AO2 SLP172 T11441167 410561144
0886722247547852015010704596+40624-074669SOD  +0030KSMQ V020999999999999999999999999999+99999+99999999999ADDAA124000025KA1240M-00555KA2240N-01435MG1102104101734OE11240058132006065OE22240040233000225OE33240005899999995REMSOD73024 HR PRECIPITATION (IN):T     24 HR MAX TEMP (F):22 24 HR MAX TEMP TIME (LST):1455 24 HR MIN TEMP (F):6  24 HR MIN TEMP TIME (LST):2356 AVERAGE STATION PRESSURE:30.150 MINIMUM SEA LEVEL PRESSURE:30.04 TIME OF OCCURRENCE:2359 PEAK WIND SPEED (MPH):13  PEAK WIND DIR (DEG):320 PEAK WIND TIME (LST):0606  FASTEST 2MIN SPEED (MPH):9  FASTEST 2MIN DIR (DEG):330 FASTEST 2MIN TIME (LST):0022 AVERAGE WIND SPEED (MPH):1.3  24 HR AVG TEMP (F):14 HEATING DEGREE DAYS:51  COOLING DEGREE DAYS:0   LATEST DAY MAX TEMP (0700-1900 LST):22  LATEST NIGHT MIN TEMP(1900-0800 LST):17 HOURLY INCREMENTAL PRECIPITATION VALUES (IN):.00 0.00 0.00 0.00 0.00 0.00 0.00 T    T    T    T    T    T    T    T    T    T    T    0.00 0.00 0.00 0.00 0.00 0.00EQDR01     N7GJS072R02     N7GKS075
0279722247547852015010705537+40624-074669FM-15+0030KSMQ V0209999C000052200059N0096565N5-01445-01675101715ADDAA101000095AU100001015AW1105GA1005+999999999GD10991+9999999GF100991999999999999999999KA1060M-01001KA2060N-01441MA1101695101335MD1690174+9999WA1900099REMMET11801/07/15 00:53:02 METAR KSMQ 070553Z 00000KT 6SM BR CLR M14/M17 A3003 RMK AO2 SLP171 I6000 T11441167 11100 21144 56017
0211722247547852015010706537+40624-074669FM-15+0030KSMQ V0209999C00005014025MN0128755N5-01285-01505101725ADDAA101000095GA1085+014025999GD14991+0140259GE19MSL   +99999+99999GF199999999999014021999999MA1101695101335REMMET09401/07/15 01:53:02 METAR KSMQ 070653Z 00000KT 8SM OVC046 M13/M15 A3003 RMK AO2 SLP172 T11281150
0211722247547852015010707537+40624-074669FM-15+0030KSMQ V0209999C00005013725MN0112655N5-01115-01395101635ADDAA101000095GA1075+013725999GD13991+0137259GE19MSL   +99999+99999GF199999999999013721999999MA1101595101235REMMET09401/07/15 02:53:02 METAR KSMQ 070753Z 00000KT 7SM BKN045 M11/M14 A3000 RMK AO2 SLP163 T11111139
0231722247547852015010708537+40624-074669FM-15+0030KSMQ V0209999C00005036585MN0112655N5-01115-01335101495ADDAA101000095GA1085+036585999GD14991+0365859GE19MSL   +99999+99999GF199999999999036581999999MA1101465101105MD1890224+9999REMMET10001/07/15 03:53:02 METAR KSMQ 070853Z 00000KT 7SM OVC120 M11/M13 A2996 RMK AO2 SLP149 T11111133 58022
0211722247547852015010709537+40624-074669FM-15+0030KSMQ V0209999C00005036585MN0112655N5-01065-01285101405ADDAA101000095GA1085+036585999GD14991+0365859GE19MSL   +99999+99999GF199999999999036581999999MA1101355100995REMMET09401/07/15 04:53:02 METAR KSMQ 070953Z 00000KT 7SM OVC120 M11/M13 A2993 RMK AO2 SLP140 T11061128
0230722247547852015010710537+40624-074669FM-15+0030KSMQ V0203105N001552200059N0112655N5-01065-01335101405ADDAA101000095GA1025+036585999GD11991+0365859GE19AGL   +99999+99999GF102995999999036581999999MA1101355100995REMMET09401/07/15 05:53:02 METAR KSMQ 071053Z 31003KT 7SM FEW120 M11/M13 A2993 RMK AO2 SLP140 T11061133EQDD01      0ADE726
0342722247547852015010711537+40624-074669FM-15+0030KSMQ V0209999V001552200059N0160935N5-00725-01065101455ADDAA101000095GA1025+014335999GA2025+018295999GD11991+0143359GD21991+0182959GE19AGL   +99999+99999GF102995999999014331999999KA1060M-00721KA2060N-01441MA1101425101065MD1590044+9999WA1900099REMMET12601/07/15 06:53:02 METAR KSMQ 071153Z VRB03KT 10SM FEW047 FEW060 M07/M11 A2995 RMK AO2 SLP145 I6000 T10721106 11072 21144 55004EQDD01      0ADE726
0231722247547852015010712537+40624-074669FM-15+0030KSMQ V0202805N002152200059N0160935N5-00725-01175101535ADDAA101000095GA1025+025915999GD11991+0259159GE19AGL   +99999+99999GF102995999999025911999999MA1101495101135REMMET09501/07/15 07:53:02 METAR KSMQ 071253Z 28004KT 10SM FEW085 M07/M12 A2997 RMK AO2 SLP153 T10721117EQDD01      0ADE726
0187722247547852015010713537+40624-074669FM-15+0030KSMQ V0202905N003652200059N0160935N5-00675-01115101585ADDAA101000095GA1005+999999999GD10991+9999999GF100991999999999999999999MA1101565101205REMMET09201/07/15 08:53:02 METAR KSMQ 071353Z 29007KT 10SM CLR M07/M11 A2999 RMK AO2 SLP158 T10671111
0196722247547852015010714516+40624-074669FM-16+0030KSMQ V0202805V004152200059N0040235V5-00605-01405999999ADDAU120090015AW1415GA1005+999999999GD10991+9999999MA1101565101205OC101245REMMET11301/07/15 09:51:02 SPECI KSMQ 071451Z 28008G24KT 2 1/2SM UP CLR M06/M14 A2999 RMK AO2 VIS 1 1/4V5 UPB43 P0000 FIBI
